:020000040800F2
:10000000E0040020FD1900080D1A00080F1A00086E
:10001000111A0008131A0008151A00080000000041
:10002000000000000000000000000000171A000897
:10003000191A0008000000001B1A00087D060008BD
:100040004D1A0008511A0008551A0008591A0008DC
:100050005D1A0008611A0008651A0008691A00088C
:100060006D1A0008711A0008751A0008791A00083C
:100070007D1A0008811A0008851A0008891A0008EC
:100080008D1A0008911A0008951A0008991A00089C
:100090009D1A0008A11A0008A51A0008A91A00084C
:1000A000AD1A0008B11A0008B51A0008B91A0008FC
:1000B000BD1A0008C11A0008C51A0008C91A0008AC
:1000C000CD1A0008D11A0008D51A0008D91A00085C
:1000D000DD1A0008E1080008E51A0008E91A00081E
:1000E00029180008F11A0008F51A0008F0B540F2C6
:1000F000FF7581EA030C0CF0004C15EA11541DBF8A
:1001000015EA1357AC42AF42E5E0BC41C1F313011D
:10011000C3F31303801A994143F4801304D2641E7D
:100120004000494180185941C90241EA5051B1FB90
:10013000F3F603FB1611A2FB0675D7EBC020A9410D
:1001400002D2761E80185941C90241EA5051B1FBD2
:10015000F3FE03FB1E11A2FB0E75D7EBC020A941D5
:1001600003D2AEF1010E80185941890241EA905143
:10017000760546EA8E2EB1FBF3F603FB1611A2FBC1
:100180000675D7EB8020A94102D2761E801859410E
:10019000C90241EA50514EEA060EB1FBF3F603FBE9
:1001A0001611A2FB0675D7EBC020A94102D2761E1C
:1001B00080185941C90241EA5051B1FBF3F703FBE2
:1001C0001711A2FB0735D3EBC020A94167F1000747
:1001D0000CBF004247F0010766F3D5274FEA1E31F6
:1001E000B80814F5806412DDBD0775F1004250EBCC
:1001F0000E5051EB045111F5801F5CBF41EA0C0118
:10020000F0BD4CF07F6141F0E0410020F0BDBD0742
:100210006D0840EA0E5041F48011D4F10104B4F1AC
:1002200020060ADAC4F120060200E04001FA06F3D3
:10023000E1401843B24015430EE0342C13DCC6F104
:10024000200445EA40056D0820FA06F2154321FA1C
:1002500006F0A1400D43002175F1004250F100006D
:1002600051EB0C01F0BD00205FEA0C01F0BDCFB9ED
:1002700092185B41B3FA83F704BFB2FA82F6BF1952
:100280000B3FB7F120062FBF02FA06F3BB40C7F1C0
:10029000200622FA06F638BF3343BA401CB1E419EF
:1002A000641E33E77F4231F00041B1FA81F404BFAC
:1002B000B0FA80F6A4190B3CB4F120062FBF00FA67
:1002C00006F1A140C4F1200620FA06F638BF3143FA
:1002D000A0403C1B1AE7AC421ABF05EA1357AF42D5
:1002E00012E050EA41061CBF52EA4306BFE750EA5B
:1002F0004107304661461CBF41EA0551F0BD52EA54
:10030000430C08BFC143F0BD00204FF4001616EBAC
:10031000410F98BF16EB430F08BF16EB410F24BFE8
:10032000C14305E016EB430F0CBF61464CEA055193
:10033000F0BD30B4002513E050F8042BD30744BFC0
:10034000A9F101039A18091F042942F8045BFAD2A3
:1003500013468C0744BF15809B1CC90748BF1D70FE
:1003600050F8041B0029E7D130BC70472DE9F04E4E
:1003700000F0FEF800F076F900F098F902216848E4
:10038000DFF8A0416FA500F0BDF900F037FA05E0F5
:10039000284600F0DBFA204600F078F900F0BDFBBB
:1003A0000028F5D16DA0DFF880B1DFF88091604CB6
:1003B000604E614F00F0CAFA4FF0663A41F288355C
:1003C00039E000F045FC33E00021384600F040FC05
:1003D000284600F05BF90A2000F0F1F900F070FC0B
:1003E00052464B4600F07AFC00F04AFDA06000F057
:1003F0007BFD02460B465046594600F099FD524699
:100400005B46FFF773FE00224C4B00F067FC00F0E8
:1004100001FE60704021384600F022FC0028F9D02F
:10042000384661780029CCD000F012FC00206070C2
:10043000434800F02BF9FF21384600F009FC00F09A
:100440003AFE012811D13178384600F001FC2846E7
:1004500000F01CF9B178384600F0FAFB002030704B
:100460007070B070F070307107E00021384600F015
:10047000EFFB0021384600F0EBFB284600F006F9C0
:1004800000F01FF920704021384600F0E9FB0028F9
:10049000F9D038462178002904D000F0D9FB00209B
:1004A000207001E000F0D4FB284600F0EFF800F0E7
:1004B000FFFA002814BF81B20021384600F0C8FBC3
:1004C000284600F0E3F80A2000F079F9606000F0B7
:1004D0004FFE00F009FD52464B4600F0FFFB00F0D6
:1004E000CFFCA06000F000FD02460B465046594686
:1004F00000F01EFD52465B46FFF7F8FD00220F4B51
:1005000000F0ECFB00F086FD0028E0603FF45CAFFB
:1005100081B2384600F09CFB0020E06058E7000004
:1005200000240140801A060066660A4066664A3F5B
:10053000AC000020C80000200038014000005940F5
:10054000C0C62D00445331384232302043686563C1
:100550006B204661696C6564210D0A004453313893
:10056000423230205265616479210D0A000000009A
:10057000374A384982B0106840F001001060536873
:1005800035480B4053600023D2F800C000EA0C0C41
:10059000C2F800C0116821F4802111604FF41F01DE
:1005A000506820F4FE00506091600093019313683E
:1005B00043F480331360106800F400300190009819
:1005C000401C0090019818B90098B0F5A06FF2D1C6
:1005D0001068400C00F0010001900198012830D112
:1005E0001E48016841F01001016003689B089B00F0
:1005F0000360016841F00201016050685060516879
:100600005160506840F480605060506820F47C1065
:100610005060506840F4E8105060116841F08071FB
:10062000116010688101FCD550688008800050601E
:10063000506840F002005060506800F00C0008283C
:10064000FAD14FF000600649086002B07047000020
:10065000001002400000FFF8FFFFF6FE00200240FD
:1006600008ED00E00E480F4B47214160F0221A7060
:1006700000218160072202607047000000BF0A4924
:10068000086810B10A68521E0A60704701B4064932
:10069000009A0A6008680028FCD101B07047000089
:1006A00010E000E023ED00E0D800002080B501213B
:1006B000042000F0AEFDBDE804400121104800F028
:1006C00021B8F8B500250A2441F288360C4F0021E4
:1006D000384600F05FF845193046FFF7D7FF641E33
:1006E000F5D10A20B5FBF0F0B0F57A6F88BF4FF472
:1006F0007A602821B0FBF1F0C0F16400C0B2F2BD15
:100700000028014038B50446394A944286B00D4667
:1007100003D101214FF4017005E036498C4204D128
:10072000012140F2044000F074FD4FF4004000F05D
:1007300030FD00218DF80310ADF8005069462E48B9
:1007400000F088FD204600F0EBFD4FF4602203929C
:1007500000210191ADF80810049101228DF81420B8
:1007600001A9204600F005FE0121204600F021FEEF
:10077000204600F027FE204600F029FE0028FAD18E
:10078000204600F027FE204600F029FE0028FAD17E
:1007900007B030BD10B504460723012200F02DFE3E
:1007A0000121204600F020FE0221204600F074FEC8
:1007B0000028F9D02046BDE8104000F060BE2DE9C9
:1007C000F041002506000ED0344641F28837DFF8AC
:1007D000208001214046FFF7DDFF45193846FFF72D
:1007E00055FF641EF5D1B5FBF6F0BDE8F0810000C1
:1007F00000240140002801400008014080B501218B
:1008000044F2050000F005FD00F005F800F045F8A1
:10081000BDE801401EE01CB54FF400701821ADF892
:1008200000008DF8031003228DF802206946464C23
:10083000204600F00FFD4FF48062ADF80020042147
:100840008DF8031003228DF802206946204600F03F
:1008500001FD13BD10B584B04FF416510091002274
:100860000C21ADF80C20ADF80A100192ADF808206B
:100870006946334C204600F075F94021204600F0CF
:10088000F6F90121204600F0BDF9012240F2255180
:10089000204600F0C1F904B010BD80B54FF4C0602F
:1008A00000F002FE00228DF801208DF802202521A3
:1008B00001228DF800108DF80320684600F0F9FD44
:1008C00001BD38B504461E4D4021284600F0C8F948
:1008D0000028F9D0E1B2284600F0BAF9204632BD2E
:1008E00038B5174C40F225552946204600F0C0F98E
:1008F00000B3204600F0B0F9124A117AC0B2C9B96B
:10090000AA2808BF10700DD0F92808BF507009D070
:10091000DD2808BF907105D0D17911448870D07955
:10092000401CD071D079042804DB9079DD2804BF05
:10093000FF21117229462046BDE8344000F0B8B9C5
:1009400000380140BC000020000801400EB4C0B5D2
:10095000024603A800210190009101AB0121044847
:1009600078440C3000F0E8FD06BC5DF810FB00BFD9
:100970006910000010B57748774C01680909090132
:1009800001600021026842F003020260216040F22F
:10099000EE20FFF77BFE012121600F20BDE8104013
:1009A000FFF774BE6B4838B501686C4D0909090141
:1009B00001600024026842F0080202602868E1B287
:1009C00098B1C82911DA0120FFF760FE641CF5E731
:1009D00000242868E1B260B9F0290ADA0120FFF7A3
:1009E00055FE641CF5E7002032BDC829F0DB01206C
:1009F00032BDF029F7DBFAE770B505465548564E8B
:100A000001680909090101600824026842F0030233
:100A1000026028466D08C10708D500223260022016
:100A2000FFF734FE012131603C2007E000203060F8
:100A30003C20FFF72BFE012030600220FFF726FE4E
:100A4000641EE6D170BD2DE9F8434FF0000808247C
:100A5000DFF80891404E3F4F3868000900013860C8
:100A60000022396841F00301396032600220FFF74B
:100A70000DFE0121316038680009000138600C204A
:100A80003A6842F008023A60FFF700FED9F8000029
:100A9000451EAD413220FFF7F9FDED43ED0F4FEA62
:100AA0005800641E40EAC518D6D14046BDE8F2831E
:100AB00038B5FFF75FFFFFF775FFCC20FFF79CFF0E
:100AC0004420FFF799FFFFF755FFFFF76BFFCC209E
:100AD000FFF792FFBE20FFF78FFFFFF7B4FF054639
:100AE000FFF7B1FF0828A3BFC043ED430024012452
:100AF000C0B2EDB205EB002528B200F0B1FD00F068
:100B0000F3F90022164B00F0E9F800F083FA002C0C
:100B100000B204BF404200B232BD1CB50121042026
:100B200000F077FB0421ADF80010102203218DF8AE
:100B300002108DF803206946064C204600F08AFB1F
:100B4000042120460161C046FFF714FFFFF72AFF8A
:100B500016BD000000080140880121420801214221
:100B60000000E43F30B5044685B00D46228AE8888F
:100B70004CF6FF710A40024322824EF6F311A2891D
:100B8000A8880A402989024368890A430243A2814E
:100B90004FF6FF41A28AA8890A400243A282684612
:100BA00000F0FCFA16492A688C420CBF039902999E
:100BB0001920A389A589414318044CBF5200920013
:100BC000B1FBF2F16422B1FBF2F2120113096420CD
:100BD00000FB1311280407D5C90032316420B1FB92
:100BE000F0F000F0070006E0090132316420B1FBAB
:100BF000F0F000F00F000243228105B030BD00008C
:100C00000038014021B1818941F400518181704750
:100C100082894DF6FF7118E00B065B0F4FF0010C57
:100C200001F01F01012B0CFA01F108BF0C3003D0B9
:100C3000022B0CBF10301430002A19BF0268114378
:100C4000036823EA0101016070470A40828170470E
:100C5000C1F30801818070478088C0F308007047A5
:100C60000246002012880A4218BF0120704724E083
:100C700070B402460C060020640F012601F01F0329
:100C8000012C06FA03F308BF948905D0022C02D187
:100C9000158A2B4001E0948A2340090A128806FA3B
:100CA00001F170BC1140002B1CBF002901207047CE
:100CB0000122090A02FA01F189B2C9430180704791
:100CC000014648B1B0FA80F18840C91CC1F5846181
:100CD000090501EBD021400570470000B0B581EA5D
:100CE000030C0CF0004C40F2FF7515EA11541DBFC7
:100CF00015EA1357AC42AF4239E0E41923EA4553F1
:100D000043F48013C90241F0004141EA505EC7023A
:100D10001100A7FB020200284FF00000EEFB0120AB
:100D20004FF00001E3FB072118BF42F00102401819
:100D300000214941E3FB0E01A4F580640F0302D2B8
:100D400052004041494154F101046CDD470872F101
:100D5000004250F1000051EB0451A1F580115CBF3D
:100D600041EA0C01B0BD4CEA05510020B0BD05EAD6
:100D70001357AC4214BFAF4241E050EA410E1CBFD2
:100D800052EA430E02E061460020B0BD24423C44DA
:100D90001BD15FEA070EF6D0090302BF014600200F
:100DA000AEF1140EB1FA81F7AEEB070401FA07FEBB
:100DB0000C37C7F1200100FA07F7C8404EEA000ED1
:100DC00023EA455343F48013A2E733F00043B3FA18
:100DD00083F704BFB2FA82FE77440B3FE41BB7F1FE
:100DE000200E2FBF02FA0EF3BB40C7F1200E22FAED
:100DF0000EFE38BF43EA0E03BA40641C82E750EA95
:100E0000410E14BF52EA430E6FF000014FF4001779
:100E100017EB430F8ABF194617EB410FB5E74CEAB2
:100E200005510020B0BDD4F10104B4F120070FDA60
:100E3000C4F12007520828BF42F0010210FA07F55A
:100E400001FA07F7E1BF2A43E0403843E1400FE0F1
:100E5000352C98DCC7F1200452EA400220FA07F250
:100E600018BF42F0010231FA07F0A1400A43002105
:100E700072F1004250F1000051EB0C01B0BD0000D6
:100E800001F000428B1AA3F16051B1F5801F0ADB1B
:100E9000B1F17F6F1FD242EAC102C10071F100417E
:100EA00042EB507070470B15C3F10903212B10D290
:100EB000890241EA905180020128494141F00041F4
:100EC00021FA03F0C3F12003994071F10041504130
:100ED0007047100070476FF0000013EB103F5CBFCD
:100EE000000E42EAC0507047C0F3C75181B1FF29DC
:100EF00006D0C110400721F0E04101F16051704778
:100F000041020CBF40F4E0016FF000410020704747
:100F100000F0004100020AD0B0FA80FC00FA0CF0A8
:100F200001F16051A1EB0C5101EBD021400570475C
:100F300070B44FF0004591EA030F40F1A3836B407A
:100F4000841A71EB030603D2001BB14112197341DD
:100F50004FF4001C1CEB410F34BF7CEB430442E018
:100F60000C0DA4EB1356352E4FDC45EAC323DB0AE8
:100F700045EAC121C912B6F120050DDD63FA05F677
:100F8000EB4086EA0305124218BF45F00105C01880
:100F900051F100010CD213E062FA06F5F24055401F
:100FA000F3415A40B340F3405A408018594107D3A7
:100FB00049085FEA30005FEA350528BF45F00105C2
:100FC00001F58011420875F1004250F1000041EB3B
:100FD00004514E0016F5001F70BC38BF704700204A
:100FE000090D090570471CEB410F10D252EA430668
:100FF0000BD0BCEB410F05D80C0DAB43661E342E55
:10100000B6DD02E0AB438018594170BC704770BC3C
:1010100070470000C1F30A5340F2FE329B1A14DD00
:10102000D3F120034FEAE17208DDC90241EA5051D1
:1010300041F00040D84080185040704703F2E13042
:1010400010B1D24382F0004070470020704700008A
:1010500080B50121042000F0DCF81021ADF800106B
:101060000322042108E080B50121042000F0D1F81A
:101070001021ADF8001003228DF803108DF8022026
:101080006946394800F0E6F801BD10B5FFF7EBFFFF
:10109000354C102120464161C04644F63820FFF708
:1010A000F5FA102120460161C0461E20FFF7EEFA36
:1010B000BDE81040CCE7F8B5FFF7E7FF2A4D102157
:1010C000284600F025F9002600284AD1102128469C
:1010D00000F01EF90028F9D01021284600F018F978
:1010E0000128F9D0002708241021284600F010F923
:1010F0000028F9D02820FFF7C9FA1021284600F06F
:1011000007F9012807D11021284600F001F901282C
:10111000F9D0012000E00020641E40EA4707E3D137
:10112000124CB0B2761CB1B227540429DADD10217A
:10113000284600F0EDF80028F9D0FFF794FF1021C1
:1011400028460161C04622786078A1788218E0784C
:101150008A18217982188A4201D10120F2BD00202B
:10116000F2BD0020F2BD000000080140C8000020D0
:1011700000280AD0B0FA80F18840D1F19D01C9055C
:10118000020672F1004241EB1020704710430860E4
:1011900070472A490A6822F44042F7E710B4274B07
:1011A000196801F00C01082911D119681A68C1F3F6
:1011B0008344A41CD20358BF214906D51A68910361
:1011C00002D51F4A544303E01E494C4300E01D4C26
:1011D00004601A681C49C2F303128A5CD44044605C
:1011E0001A684468C2F302228A5CD44084601A6898
:1011F0004468C2F3C2228A5CD440C4601A68C368DF
:10120000C2F381321144097CB3FBF1F1016110BCDE
:1012100070470E4A002919BF11680843136823EA72
:101220000000106070470A4A002919BF116808437E
:10123000136823EA000010607047000004100240A9
:1012400000093D0000127A00000000201810024042
:101250000C1002402DE9F041CA78002402F00F037F
:10126000D50644BF8A7813430A88D5B21DB30568F2
:1012700001260F2706FA04FC0CEA020EE64516D1F9
:101280004FEA840E07FA0EF825EA080503FA0EFE67
:101290004EEA050591F803E0BEF1280F08BFC0F83B
:1012A00014C004D0BEF1480F08BFC0F810C0641CC1
:1012B000082CDFD30560B2F5807F27DB456800246A
:1012C00001260F2704F1080C06FA0CFC0CEA020EAA
:1012D000E64517D14FEA840E07FA0EF825EA08050D
:1012E00003FA0EFE4EEA050591F803E0BEF1280F61
:1012F00008BFC0F814C091F803E0BEF1480F08BF62
:10130000C0F810C0641C082CDCD34560BDE8F08137
:101310000246002092680A4218BF01207047000070
:1013200080B55849884208D101214FF40070FFF779
:101330007AFF00214FF4007016E05349884208D12B
:1013400001214FF48060FFF76EFF00214FF48060B1
:101350000AE04E4988420BD101214FF40040FFF7CB
:1013600062FF00214FF40040BDE80440FFF75BBF7F
:1013700001BD30B44468464B0A680D791C401443E3
:1013800044EA05244460434A8468CB6814408A6870
:101390001C434B79144344EA43048460C26A097CC9
:1013A0004B1E22F47002DBB242EA0352C26230BC2E
:1013B00070470029816812BF41F0010149084900C6
:1013C00081607047816841F00801816070478068E2
:1013D000C00806E0816841F00401816070478068C0
:1013E000800800F0010070470029816814BF41F4B3
:1013F000A00121F4A0018160704770B407240A297C
:101400000BDBA1F10A0505EB4505C668AC4026EAF1
:101410000404AB402343C36008E001EB41050669C7
:10142000AC4026EA0404AB40234303611F24072A8F
:101430000BDA521E02EB8202436B944023EA04044F
:1014400091402143416370BC70470C2A0BDCD21FD2
:1014500002EB8202036B944023EA0404914021438F
:10146000016370BC70470D3A02EB8202C36A94407C
:1014700023EA040491402143C16270BC7047C06CF0
:1014800080B270470024014000280140003C014028
:10149000FFFEF0FFFDF7F1FF0246002012680A424E
:1014A00018BF0120704700001849194A084310600E
:1014B0007047F0B40378C1781C460122E1B11449A9
:1014C0000B684578867803F4E063C3F5E0631B0A94
:1014D0000F27C3F10401DF408D403E4035430D49E5
:1014E0000D4B2D010D55017801F01F008240490977
:1014F00043F82120F0BC704703F01F03074802FAAD
:1015000003F3640940F82430F0BC70470000FA058A
:101510000CED00E000E400E000E100E080E100E02C
:1015200070B505461C000846164604D016F8011B87
:10153000A847641EFAD170BD2DE9FC4383B08146F3
:10154000884617461D4607E001233A46414648466D
:10155000FFF7E6FF80467F1C3878E0B12528F3D1FD
:101560007978BF1C252912D058295AD0632915D063
:10157000642918BF692918D06F2952D0702956D014
:1015800073295BD0752918BF78294AD0E4E7404613
:10159000C8478046E0E705B0BDE8F08328682860CA
:1015A00050F8041B2860C9B2F1E72868286050F899
:1015B000046B2860002E03D52D214046C847804685
:1015C00064216F2908BF082205D041F02000782847
:1015D00014BF0A2210220B246429304602D1002EA7
:1015E00048BF4042B0FBF2FC02FB1C003030641EDE
:1015F000C3B23A2BA4BFA1F1510630180DF8040074
:101600005FEA0C0001D0002CECDC0DEB0406D4F1F9
:101610000B044046BDD016F8011BC847641EFAD122
:10162000B7E72868286050F8046B2860C9E7286885
:101630002860782150F8046B2860C2E72868286089
:1016400050F8046B2860304600F0D2F804004046A1
:101650009FD016F8011BC847641EFAD199E7000015
:10166000C2175040801AB0FA80F10AD08840D1F1F8
:101670009D01D20742EAC151020672F1004241EBDC
:1016800010207047841A71EB030604D26E40001BD1
:10169000B141121973414FF4001C1CEB410F34BFD0
:1016A0007CEB430683E00C0DA4EB1356362E00F3BF
:1016B0007C80012E45EAC32341DC43EA525312BF2A
:1016C000D20292025B08240545EAC12141EA505149
:1016D000D2EBC020994125D407D1B0FA80F610FA98
:1016E00006F162D00020203608E0B1FA81F6B14060
:1016F000C6F1200220FA02F21143B0404FEAF4741E
:10170000B4EB465434F001064FEA74040AD8D6F517
:101710000016760D04F00044F04061FA06F25040E5
:10172000F1404840C00A40EA415021F0004128BF42
:101730005FEA500550F1000044EBD12135E0DB0AAF
:1017400045EAC121C90AB6F120050EDD42EA02428E
:10175000120CC5F1200603FA06F6EB4042EA060534
:101760006D42984161F100010DE062FA06F5F24028
:10177000554063FA06FC82EA0C02F3405A406D427F
:10178000904161EB030111F4801F05D1641E6205D5
:1017900002D06D004041494121F48011430875F1A8
:1017A000004350F1000041EB045170BC70471CEB4A
:1017B000410F15D223F0004352EA43060BD04FEA03
:1017C0004C0CBCEB410F04D80C0D661E342EB7DD5B
:1017D000EBE7801A994150EA410608BF0021E4E78F
:1017E00008BF1CEB430F28BF6FF00001DDE70000CE
:1017F00000F10103810704D010F8011B820781B1B9
:10180000FAD10268A2F10131914311F0803104BF95
:1018100050F8042FF6E709BAB1FA81F100EBD100D4
:10182000401CC01A7047000010B54FF4006000F073
:1018300063F8304C88B14FF400612D48FFF768FD24
:1018400038B920780428ACBF0020401C207001204B
:1018500060704FF4006000F057F84FF4805000F0D3
:101860004BF888B14FF480512148FFF751FD38B94A
:10187000A0780428ACBF0020401CA0700120E070BC
:101880004FF4805000F040F84FF4005000F034F86E
:1018900088B14FF400511648FFF73AFD38B9207966
:1018A0000428ACBF0020401C2071012060714FF45F
:1018B000005000F029F84FF4804000F01DF8A0B16E
:1018C0004FF480410A48FFF723FD40B920780428EF
:1018D000AEBF0020A079401CA0710120E0714FF440
:1018E0008040BDE8104000F00FB810BD00000000BF
:1018F000000C0140D0000020054A1368014600207A
:101900000B4218BF0120704700BF014908607047B3
:101910001404014030B5016884684218416802EB44
:101920005103C9070BD54C4409E012F9011B12F809
:10193000015B002904F8015B05D5491CF9D19A42E5
:10194000F3D10C3030BD491EF1D5F8E710B5074989
:1019500079441831064C7C44163404E00A68081DAA
:10196000114488470146A142F8D110BD080000008B
:1019700024000000BFE9FFFF800000005C000020A1
:101980000000000091FFFFFF7001000076000000E2
:10199000000000200120C046002801D0FFF7D6FF3C
:1019A000AFF300800020AFF30080FEF7DFFC00F013
:1019B00000F800F001B800000746384600F002F8D1
:1019C000FBE7000080B5AFF30080024A1100182049
:1019D000ABBEFBE72600020038B504460D4628469C
:1019E00000F006F8A84218BF0024204632BD0000CF
:1019F0000149FEF766BF00BF140000200148804780
:101A000001480047710500081D1A00087047FEE7ED
:101A1000FEE7FEE7FEE7704770477047AFF30080D0
:101A2000AFF30080FFF7B6FFFFF7F0BFFFF7EFBFA0
:101A3000FFF7EEBFFFF7EDBFFFF7ECBFFFF7EBBF20
:101A4000FFF7EABFFFF7E9BFFEF718BEFFF7FEBFDB
:101A5000FFF7FEBFFFF7FEBFFFF7FEBFFFF7FEBFBA
:101A6000FFF7FEBFFFF7FEBFFFF7FEBFFFF7FEBFAA
:101A7000FFF7FEBFFFF7FEBFFFF7FEBFFFF7FEBF9A
:101A8000FFF7FEBFFFF7FEBFFFF7FEBFFFF7FEBF8A
:101A9000FFF7FEBFFFF7FEBFFFF7FEBFFFF7FEBF7A
:101AA000FFF7FEBFFFF7FEBFFFF7FEBFFFF7FEBF6A
:101AB000FFF7FEBFFFF7FEBFFFF7FEBFFFF7FEBF5A
:101AC000FFF7FEBFFFF7FEBFFFF7FEBFFFF7FEBF4A
:101AD000FFF7FEBFFFF7FEBFFFF7FEBFFFF7FEBF3A
:101AE000FEF7FEBEFFF7FEBFFFF7FEBFFFF79CBE8F
:101AF000FFF7FEBFFFF7FEBFFC0023010203040156
:101B00000203040607080902040608020401015C36
:101B1000000020AC0000205C0000205C000020FCE5
:101B200000035C000020FC00075800002044000077
:031B300020E000B2
:0400000508001A1DB8
:00000001FF
