:020000040800F2
:10000000B01A002095F60008D9F20008DBF20008CB
:1000100000000000000000000000000000000000E0
:10002000000000000000000000000000DDF20008F9
:100030000000000000000000DFF20008E1F200080C
:10004000D3290008CB960008A9F300081F970008E1
:10005000279800085B9A000805F30008EDF20008F5
:1000600077A20008ABA200080FF3000819F30008FC
:1000700063A40008D7A5000800000000BBA6000884
:1000800000000000B3F300080000000000000000C2
:1000900053AD0008000000007BAD0008B7B10008B8
:1000A000BBB1000833D600086FE6000823F3000850
:1000B00031F300083FF30008C3F4000887F6000896
:1000C000F8B545480178632945D0444802F072FCF0
:1000D00002F0F0FD012857D16321702004F0ADFF3C
:1000E0003F4C677BA67BE57B217B712004F0A5FF5D
:1000F0003900722004F0A1FF3100732004F09DFF4D
:100100002900742004F099FF677CA67CE57C217CA3
:10011000752004F092FF3900762004F08EFF310044
:10012000772004F08AFF2900782004F086FF677D9D
:10013000A67DE57D217D792004F07FFF39007A20BE
:1001400004F07BFF31007B2004F077FF29007C2046
:1001500004F073FFF1BD41788278C3780579204CB3
:1001600021736273A373E57341798279C379057A48
:1001700021746274A374E574417A877AC67A057B28
:1001800021756775A675E575F1BD164A1378032BC1
:1001900021D0154BC9181D2918D2002806D0502887
:1001A00004DA002111700221104B1970010051393D
:1001B0004F2904D20121117002210C4B1970A13872
:1001C0004F2803D202201070084908701078632865
:1001D00001D162201070704770000808ACF100086F
:1001E0006816002078030020DDFEFFFFFA010020E2
:1001F000F8B59C277F00FF263E36A24C20000090D9
:100200003300412239000F2006F017F9D225AD0046
:10021000280000903300912239005F2006F00DF98C
:10022000280000903300E1223900AF2006F005F9E4
:100230000020009091235B00F022014606F0FDF8BB
:10024000280000902423ED220321084605F0AFFF8B
:10025000280000904823ED222721032005F0A7FF66
:10026000280000906C23ED224B21032005F09FFF16
:10027000280000909023ED226F21032005F097FFC6
:1002800028000090B423ED229321032005F08FFF76
:1002900028000090D823ED22B721032005F087FF26
:1002A00028000090FC23ED22DB21032005F07FFFD6
:1002B0003C3E28000090FF2320335F2231002C2099
:1002C00006F0BBF8280000908F235B00C3223100AA
:1002D000912006F0B2F8B61D2300DC4A3100302030
:1002E00006F0CFF82300DA4A31009A2006F0C9F868
:1002F0002300D8A20B210D2006F0C3F8D6A62300B8
:1003000032000B21322006F0BCF82300D3A22F21AB
:100310000D2006F0B6F8230032002F21322006F01F
:10032000B0F82300CEA253210D2006F0AAF8230036
:1003300032005321322006F0A4F82300C9A277210D
:100340000D2006F09EF8230032007721322006F0BF
:1003500098F82300C4A29B210D2006F092F82300F8
:1003600032009B21322006F08CF82300BF4ABF21C7
:100370000D2006F086F823003200BF21322006F05F
:1003800080F82300BAA2E3210D2006F07AF82300BA
:100390003200E321322006F074F8B64E307801289E
:1003A00014D1280000901D237B220A21582006F03A
:1003B00044F82300B04A0B215A2006F062F82300CB
:1003C000AEA20B21B42006F05CF815E0002813D192
:1003D0002300A94A0B215A2006F053F82800009068
:1003E0001D23CD220A21B22006F027F82300A3A264
:1003F0000B21B42006F045F87078012814D12800AC
:100400000090412373222E21582006F016F8230075
:100410009BA22F215A2006F034F8230099A22F2105
:10042000B42006F02EF815E0002813D1230094A282
:100430002F215A2006F025F8280000904123C522DC
:100440002E21B22005F0F9FF23008EA22F21B42027
:1004500006F017F8B078012816D12800009065231F
:1004600073225221582005F0E8FF230084A2532173
:100470005A2006F006F8230082A25321B42006F089
:1004800000F817E0DBD60000002813D123007CA27F
:1004900053215A2005F0F5FF280000906523C5225E
:1004A0005221B22005F0C9FF230076A25321B420C7
:1004B00005F0E7FF2800009089236E2275215A205D
:1004C00005F075FE230070A27721602005F0D9FFAA
:1004D0000C20F178421AB0780A2A12DB012808D1E0
:1004E000F82000020090022377218E2005F047FFBC
:1004F00019E020000090022377218E2005F03FFFB5
:1005000011E0012808D1F820000200900123772192
:100510008E2005F034FF06E02000009001237721B3
:100520008E2005F02CFF280000908923C922752118
:10053000B52005F03CFE55A723003A007721BC20EA
:1005400005F09FFF28000090AD236E2299215A20CC
:1005500005F02DFE23004CA29B21602005F091FFA9
:1005600032797078012807D12000009001239B2167
:100570008E2005F004FF07E0F82000020090012320
:100580009B218E2005F0FBFE28000090AD23C922A0
:100590009921B52005F00BFE23003A009B21BC20D9
:1005A00005F06FFF28000090D1236E22BD215A2054
:1005B00005F0FDFD230034A2BF21602005F061FF9E
:1005C0002000009001237279BF218E2005F0D7FE14
:1005D00028000090D123C922BD21B52005F0E7FDF8
:1005E00023003A00BF21BC2005F04BFF28000090FB
:1005F000F5236E22E1215A2005F0D9FD230022A225
:10060000E321602005F03DFFF07902000A2807DBB6
:10061000200000900223E3218E2005F0B0FE06E0CA
:10062000200000900123E3218E2005F0A8FE009514
:10063000F523C922E121B52005F0B9FD23003A00D8
:10064000E321BC2005F01DFFF1BD00BFE0F1000873
:10065000E8F10008414354003A00000043464D00D1
:1006600041445200534600004E425400F0F100084D
:10067000505752002D140020F8F10008414250005C
:10068000594553004E4F00002D0000002B00000084
:10069000F8B5984C984D994E7088001F202845D287
:1006A000308851383B281ED2D220800000901D2374
:1006B0007B220A21582005F0C0FE2B00904A0B2116
:1006C0005A2005F0DEFE002000901D23CD220A21D5
:1006D000B22005F0B2FE2B008AA20B21B42005F057
:1006E000D0FE012020703088AB3831281ED2002087
:1006F00000901D237B220A21582005F09EFE2B002E
:100700007F4A0B215A2005F0BCFED22080000090C9
:100710001D23CD220A21B22005F08FFE2B0079A2E5
:100720000B21B42005F0ADFE002020707088283821
:10073000202865D2308851383B282ED2D220800024
:100740000090412373222E21582005F076FE2B00C5
:100750006DA22F215A2005F094FE00200090412325
:10076000C5222E21B22005F068FE2B0067A22F21A2
:10077000B42005F086FE0120607000200090AB23BD
:100780009E229B218E2005F058FE28000090012318
:1007900022799B218E2005F0F2FD3088AB3831287C
:1007A0002ED200200090412373222E21582005F0E4
:1007B00044FE2B0054A22F215A2005F062FED220C5
:1007C000800000904123C5222E21B22005F035FE85
:1007D0002B004EA22F21B42005F053FE00206070A4
:1007E0000090AB239E229B218E2005F026FEF82050
:1007F00000020090012322799B218E2005F0BFFD8D
:1008000070884C38202800D389E0308851383B2844
:1008100039D2D220800000906523732252215820C3
:1008200005F00BFE2B0038A253215A2005F029FEBB
:10083000002000906523C5225221B22005F0FDFD65
:100840002B0032A25321B42005F01BFE0120A07022
:100850000020009087239E2277218E2005F0EDFD59
:100860000C20E178421AF82000020A2A009005DBE9
:10087000022377218E2005F082FD04E001237721F9
:100880008E2005F07CFD3088AB38312847D200201F
:100890000090652373225221582005F0CEFD2B00D5
:1008A00019A253215A2005F0ECFDD22080000090BF
:1008B0006523C5225221B22005F0BFFD2B0013A2F3
:1008C0005321B42005F0DDFD0020A07000908723A7
:1008D0009E2277218E2005F0B0FD0C20E178421A8F
:1008E0000A2A15DB28000090022377218E2005F0CC
:1008F00046FD14E02D140020DBD600006816002011
:10090000F8F1000841425000594553004E4F000095
:1009100028000090012377218E2005F030FDA0787B
:10092000002853D17088703820284FD230885B3827
:10093000132823D2E078401CE070C0B2062801DB07
:100940000020E0700020009087239E2277218E20D7
:1009500005F073FD0C20E178421A0A2A07DB280013
:100960000090022377218E2005F009FD06E0280083
:100970000090012377218E2005F001FD3088B638E4
:10098000132823D2E078002802D10520E07001E08E
:10099000401EE0700020009087239E2277218E2049
:1009A00005F04BFD0C20E178421A0A2A07DB2800EB
:1009B0000090022377218E2005F0E1FC06E028005C
:1009C0000090012377218E2005F0D9FC6078012862
:1009D0003BD170889438202837D230885B38132870
:1009E00017D22079012802D10820207101E0401E91
:1009F000207100200090AB239E229B218E2005F0C9
:100A00001CFD28000090012322799B218E2005F0F7
:100A1000B6FC3088B638132817D22079401C2071D4
:100A2000C0B2092801DB0120207100200090AB2317
:100A30009E229B218E2005F000FD280000900123BE
:100A400022799B218E2005F09AFC7088B8382028E6
:100A500037D230885B38132817D26079012802D149
:100A60000520607101E0401E607100200090CF23DE
:100A70009E22BF218E2005F0E0FC2800009001237B
:100A80006279BF218E2005F07AFC3088B6381328B1
:100A900017D26079401C6071C0B2062801DB0120CA
:100AA000607100200090CF239E22BF218E2005F090
:100AB000C4FC2800009001236279BF218E2005F03C
:100AC0005EFC7088DC38202861D23188B3480A0087
:100AD0005B3A132A09D2A279521CA2710123D2B225
:100AE000092A01DB1A00A2710370B639132909D251
:100AF000A179002902D10821A17101E0491EA1714B
:100B0000012101700178012941D100210170A079F2
:100B1000002801D11421E171012801D11121E171D5
:100B2000022801D11021E171032801D10E21E171C8
:100B3000042801D10C21E171052801D10A21E171BC
:100B4000062801D10721E171072801D10521E171B2
:100B5000082801D10220E07100200090F3239E229A
:100B6000E3218E2005F069FCE07902000A2807DB0A
:100B7000280000900223E3218E2005F000FC06E00F
:100B8000280000900123E3218E2005F0F8FB7088F7
:100B9000D84940181C2800D3AAE130882D383528C0
:100BA00000D351E1D4480090FF2320335F22C94392
:100BB0002C2005F042FC2B00D04AFF2108313020C8
:100BC00005F05FFCCE4F386806F0C0F9386806F0D3
:100BD000F1F9386806F02AFA386806F095FA3868AC
:100BE00006F0C8FA386806F0F9FA386806F068FBCB
:100BF000207801281DD1D220800000901D237B2267
:100C00000A21582005F019FC2B00BE4A0B215A205E
:100C100005F037FC002000901D23CD220A21B220D0
:100C200005F00BFC2B00B8A20B21B42005F029FC29
:100C30001EE000281CD1002000901D237B220A21E9
:100C4000582005F0FAFB2B00AE4A0B215A2005F084
:100C500018FCD220800000901D23CD220A21B22052
:100C600005F0EBFB2B00A8A20B21B42005F009FC3A
:100C7000607801281DD1D22080000090412373228A
:100C80002E21582005F0D9FB2B00A0A22F215A209D
:100C900005F0F7FB002000904123C5222E21B22051
:100CA00005F0CBFB2B009AA22F21B42005F0E9FB25
:100CB0001EE000281CD100200090412373222E2129
:100CC000582005F0BAFB2B0090A22F215A2005F0E6
:100CD000D8FBD220800000904123C5222E21B220D3
:100CE00005F0ABFB2B008AA22F21B42005F0C9FB35
:100CF000A07801281DD1D2208000009065237322A6
:100D00005221582005F099FB2B0080A253215A2034
:100D100005F0B7FB002000906523C5225221B220C8
:100D200005F08BFB2B007AA25321B42005F0A9FB20
:100D30001EE000281CD10020009065237322522160
:100D4000582005F07AFB2B0070A253215A2005F0A1
:100D500098FBD220800000906523C5225221B2204A
:100D600005F06BFB2B006AA25321B42005F089FB30
:100D70000020009087239E2277218E2005F05DFBC6
:100D80000C20E178421A0A2A0ADB2800009002238C
:100D900077218E2005F0F3FA09E000BFA8160020A5
:100DA00028000090012377218E2005F0E8FA00202A
:100DB0000090AB239E229B218E2005F03EFB280055
:100DC0000090012322799B218E2005F0D8FA002083
:100DD0000090CF239E22BF218E2005F02EFB2800FD
:100DE000009001236279BF218E2005F0C8FA00200F
:100DF0000090F3239E22E3218E2005F01EFBE07974
:100E000002000A2807DB280000900223E3218E203D
:100E100005F0B5FA06E0280000900123E3218E20BA
:100E200005F0ADFAD22080000090FF2320335F222E
:100E3000FF21891C2C2005F000FB2B002F4AFF21ED
:100E40000831302005F01DFB3088923831284FD210
:100E50008F277F00284800903B00C322FF21891C78
:100E6000912005F0EAFAC94E2B003200FF2108312B
:100E70009A2005F006FB607906F0B4FC642007F0C8
:100E800011F8207906F072FC642007F00BF8E07886
:100E900006F032FC642007F005F8A07806F0F2FBBB
:100EA000642006F0FFFF607806F0B2FB642006F0D5
:100EB000F9FF207806F072FB642006F0F3FFA079BA
:100EC00006F0CAFC642006F0EDFF06F05DFED220BD
:100ED000800000903B00C322FF21891C912005F077
:100EE000ACFA2B003200FF2108319A2005F0C9FA34
:100EF000F1BD0000FEFEFFFF68ED0000E0F100081C
:100F000094030020F8F10008414250005945530075
:100F10004E4F0000F8B59C277F00FF263E36D225B5
:100F2000AD00280000903300412239000F2005F069
:100F300084FA974C200000903300912239005F2002
:100F400005F07BFA280000903300E1223900AF2041
:100F500005F073FA0020009091235B00F022014617
:100F600005F06BFA280000902423ED2203210846A7
:100F700005F01DF9280000904823ED2227210320C9
:100F800005F015F9280000906C23ED224B21032079
:100F900005F00DF9280000909023ED226F21032029
:100FA00005F005F928000090B423ED2293210320D9
:100FB00005F0FDF828000090D823ED22B72103208A
:100FC00005F0F5F828000090FC23ED22DB2103203A
:100FD00005F0EDF8373F1F3E2800009033005F22F8
:100FE00039002C2005F029FA280000903300C32294
:100FF0003900912005F021FA173E2300654A31009F
:10100000362005F03EFA2300634A3100962005F0B1
:1010100038FA2300614A0B210D2005F032FAACA604
:10102000230032000B213F2005F02BFA2300A94AB0
:101030000B21472005F025FA2300A74A2F210D2078
:1010400005F01FFA230032002F21322005F019FA93
:101050002300A2A22F21822005F013FA23003200E0
:101060002F21A02005F00DFA23009DA253210D2071
:1010700005F007FA230032005321322005F001FA6F
:10108000230098A25321822005F0FBF923003200AF
:101090005321A02005F0F5F9230093A277210D201C
:1010A00005F0EFF92300320077211D2005F0E9F962
:1010B00023008EA27721592005F0E3F923003200A6
:1010C0007721692005F0DDF9230089A27721A52089
:1010D00005F0D7F9230032007721B52005F0D1F9CA
:1010E0002300844A9B210D2005F0CBF92300320018
:1010F0009B21322005F0C5F923007F4A9B218220E5
:1011000005F0BFF9230032009B21A02005F0B9F9BA
:1011100023007A4ABF210D2005F0B3F923003200E5
:10112000BF217B2005F0ADF928000090D123962245
:10113000BD21822005F03BF8230071A2BF21882049
:1011400005F09FF92000009002231E006D48006802
:10115000FA21890007F087F802003300BF21A6209A
:1011600005F00DF90095D123DD22BD21C92005F040
:101170001EF8230064A2BF21D02005F082F92300CD
:10118000624AE3213C2005F07CF9F1BDE8F100085A
:10119000DBD6000000F20008381F000808F2000843
:1011A00070B582B05A4D6888B838202849D228884E
:1011B0008338132821D2534C20685649884202D1E3
:1011C0005548206002E055494018206000200090FA
:1011D000CF23B222BF21A22005F02FF95048009062
:1011E00002231E002068FA21890007F03CF8020063
:1011F0003300BF21A62005F0C2F82888CA3813287A
:101200001FD244483F4C216809182160454A914249
:1012100000D3206000200090CF23B222BF21A22063
:1012200005F00BF93E48009002231E002068FA21C9
:10123000890007F018F802003300BF21A62005F04E
:101240009EF86888384940181C283FD228882D38D5
:10125000322823D20220C149087000200090F323D5
:10126000DC22E3213C2005F0E8F82D4C2300274A3E
:10127000E3213C2005F005F9D220800000908F2367
:101280005B00C322FF21891C912005F0D6F82300C2
:10129000E04AFF210831962005F0F3F828889238BB
:1012A000312813D20520AD490870AD4800908F2336
:1012B0005B00C322FF21891C912005F0BEF8184B6A
:1012C000D44AFF210831962005F0DBF873BD0000F9
:1012D0003A0000000000002010F2000848554D00C0
:1012E0004C5558005052450058000000590000006D
:1012F0005A00000018F200086415000820F20008E7
:101300002D0000004C0200202B00000030F20008ED
:10131000681600201027000060EA0000F0D8FFFFE8
:10132000DBD6000061EA0000FEFEFFFFF8B59C2757
:101330007F00FF253E35D226B600300000902B00FE
:10134000412239000F2005F078F8300000902B0082
:10135000912239005F2005F070F8AF4C200000901A
:101360002B00E1223900AF2005F067F80020009043
:1013700091235B00F022014605F05FF830000090F9
:101380002423ED220321084604F011FF30000090D1
:101390004823ED222721032004F009FF30000090AC
:1013A0006C23ED224B21032004F001FF300000905C
:1013B0009023ED226F21032004F0F9FE300000900D
:1013C000B423ED229321032004F0F1FE30000090BD
:1013D000D823ED22B721032004F0E9FE300000906D
:1013E000FA235F22DD212C2005F027F83000009041
:1013F000FA23C322DD21912005F01FF82300874A3C
:10140000E321362005F03DF82300824AE3219620AF
:1014100005F037F82300824A0B210D2005F031F842
:1014200080A523002A000B21322005F02AF8230092
:101430007D4A0B21822005F024F823002A000B218D
:10144000B02005F01EF8230078A22F210D2005F012
:1014500018F823002A002F21322005F012F823006B
:1014600073A22F21822005F00CF823002A002F21DF
:10147000A02005F006F823006EA253210D2005F0F0
:1014800000F823002A005321322004F0FAFF230041
:1014900069A25321822004F0F4FF23002A00532183
:1014A000A02004F0EEFF230064A277210D2004F0B9
:1014B000E8FF23002A007721322004F0E2FF230016
:1014C0005FA27721822004F0DCFF23002A0077212D
:1014D000A02004F0D6FF23005A4A9B210D2004F0DF
:1014E000D0FF23002A009B21322004F0CAFF2300F2
:1014F00055A29B21822004F0C4FF23002A009B21D7
:10150000A02004F0BEFF2300504ABF210D2004F0AC
:10151000B8FF23002A00BF21322004F0B2FF2300CD
:1015200010A2BF21822004F0ACFF23002A00BF21BB
:10153000A02004F0A6FF0096FF231833DC22FF2131
:10154000891C142004F079FF230000BF07A2822128
:101550004900522004F095FFF1BD0000FA0100207F
:1015600068ED00005355434300000000474F2054EE
:101570004F2050325000000038B5354C6088354956
:101580004118152916D221881539C72912D20321ED
:10159000314A1170314A130051330121197054320C
:1015A0001425D570002515715D700A2353712C4BDD
:1015B00013809170DE381C282AD220882D383228DA
:1015C00011D2022027490870D22080000090FA230F
:1015D000C322DD21912004F030FF0F4B0D4AE3219F
:1015E000962004F04EFF20889238312810D2062031
:1015F0001C4908701C480090FA23C322DD21912069
:1016000004F01BFF044B034AE321962004F039FF4A
:1016100031BD0000381F0008DBD6000000F20008D2
:1016200044F200083A0000004CF20008544F410018
:101630004E425400434800005346000050575200A9
:101640005045520054F20008534E52005CF200081C
:1016500068160020FEFEFFFF78030020E413002040
:101660005C120000FA01002068ED0000FEB50020C9
:101670000090A0235B00F022014604F0DEFEDF4C68
:101680002300DF4A0921212004F0FBFED225AD0012
:10169000280000904823ED222721032004F087FD35
:1016A000280000906C23ED224B21032004F07FFDE5
:1016B000280000909023ED226F21032004F077FD95
:1016C00028000090B423ED229321032004F06FFD45
:1016D00028000090D823ED22B721032004F067FDF5
:1016E00028000090FC23ED22DB21032004F05FFDA5
:1016F0008C277F00962676002800009033005F221A
:1017000039002C2004F099FE280000903300C322F9
:101710003900912004F091FE123E2300B94A3100B5
:10172000362004F0AEFE2300B74A3100962004F0C4
:10173000A8FE2300B54A2F210D2004F0A2FEB4A775
:1017400023003A002F21322004F09BFEB14E3000DE
:10175000513001900078012814D1280000904123D5
:101760008C222E21582004F068FE2300AA4A2F2143
:101770005A2004F086FE2300A84A2F21B42004F04A
:1017800080FE15E0002813D12300A34A2F215A2000
:1017900004F077FE280000904123DE222E21B220A3
:1017A00004F04BFE23009D4A2F21B42004F069FE73
:1017B00023009BA253210D2004F063FE23003A0076
:1017C0005321322004F05DFE2800009065236E2234
:1017D00051215A2004F0EBFC230092A253216020F7
:1017E00004F04FFE543602963046C07802000A28B4
:1017F00007DB20000090022353218E2004F0BFFD60
:1018000006E020000090012353218E2004F0B7FD54
:10181000280000906523C9225121B52004F0C7FC9F
:1018200081A6230032005321BC2004F02AFE2300AD
:101830007EA277210D2004F024FE23003A007721B8
:10184000322004F01EFE2800009089236E227521AC
:101850005A2004F0ACFC230072A27721602004F02F
:1018600010FE0C2001994978421A0A2A07DB200051
:101870000090022377218E2004F081FD06E02000F5
:101880000090012377218E2004F079FD280000903C
:101890008923C9227521B52004F089FC2300320078
:1018A0007721BC2004F0EDFD01984078002802D19A
:1018B0000521029A5171012802D10421029A517125
:1018C000022802D10321029A5171032802D1032177
:1018D000029A5171042802D10221029A51710528FD
:1018E00002D1022002994871230051A29B210D20B0
:1018F00004F0C7FD23003A009B21322004F0C1FD13
:1019000028000090AD236E2299215A2004F04FFC4C
:10191000230044A29B21602004F0B3FD200000902E
:1019200003230193029800880A2106F099FC020023
:1019300003239B217E2004F022FD23003DA29B2156
:10194000962004F09EFD2000009001230193029850
:1019500000880A2106F084FC0A0001239B219E20B6
:1019600004F00DFD28000090AD23C9229921B52077
:1019700004F01DFC230032009B21BC2004F081FDFB
:101980000095AD23E7229921D32004F010FC230019
:1019900029A29B21D92004F074FD2300274ABF21EE
:1019A0000D2004F06EFD23003A00BF21322004F028
:1019B00068FD230022A2BF21822004F062FD2300E3
:1019C0003A00BF21A02004F05CFD23001DA2E3210A
:1019D0000D2004F056FD23003A00E321322004F0EC
:1019E00050FD230018A2E321822004F04AFD2300C9
:1019F0003A00E321A02004F044FDF7BDDBD600004F
:101A000064F200087CF20008381F000884F2000825
:101A10003A000000E41300208CF2000894F2000861
:101A2000505752002D0000002B00000053460000CC
:101A3000465251002E0000005300000054F20008EE
:101A4000534E52005458000052580000F0B583B075
:101A5000994C27005137994D994E70882838202885
:101A600045D2308851383B281ED2D22080000090C9
:101A700041238C222E21582004F0DFFC2B00CB4A7E
:101A80002F215A2004F0FDFC002000904123DE228B
:101A90002E21B22004F0D1FC2B00C54A2F21B42006
:101AA00004F0EFFC012038703088AB3831281ED2AA
:101AB0000020009041238C222E21582004F0BDFCF0
:101AC0002B00BA4A2F215A2004F0DBFCD2208000E0
:101AD00000904123DE222E21B22004F0AEFC2B0028
:101AE000B34A2F21B42004F0CCFC002038705434C9
:101AF00070884C38202861D23188BF480A005B3A90
:101B0000132A09D223795B1C23710122DBB2092B32
:101B100001DB130023714270B639132909D22179F0
:101B2000002902D10821217101E0491E2171012102
:101B300041704178012941D100214170207900286C
:101B400001D11421E170012801D11121E170022895
:101B500001D11021E170032801D10E21E170042888
:101B600001D10C21E170052801D10A21E17006287C
:101B700001D10721E170072801D10521E170082872
:101B800001D10220E0700020009063239E225321A7
:101B90008E2004F052FCE07802000A2807DB2800BF
:101BA0000090022353218E2004F0E9FB06E0280078
:101BB0000090012353218E2004F0E1FB70887038DF
:101BC000202868D230885B38132823D27878401CCC
:101BD0007870C0B2062801DB0020787000200090E9
:101BE00087239E2277218E2004F027FC0C20797811
:101BF000421A0A2A07DB28000090022377218E2050
:101C000004F0BDFB06E028000090012377218E2020
:101C100004F0B5FB3088B638132823D27878002832
:101C200002D10520787001E0401E787000200090FD
:101C300087239E2277218E2004F0FFFB0C207978E9
:101C4000421A0A2A07DB28000090022377218E20FF
:101C500004F095FB06E028000090012377218E20F8
:101C600004F08DFB7878002801D1052161710128ED
:101C700001D104216171022801D10321617103287E
:101C800001D102216171042801D10221617105286D
:101C900001D10120607170889438202800D3BDE004
:101CA00030885B3813283BD220889349884209DA70
:101CB0009248208009E000BFE4130020DBD600003A
:101CC00068160020A178401A208000200090AB23E5
:101CD000A6229B217E2004F0B0FB0A27280000905A
:101CE000032301932088390006F0BAFA0200032387
:101CF0009B217E2004F043FB2B0081A29B21962098
:101D000004F0BFFB280000900123019320883900D4
:101D100006F0A6FA0A0001239B219E2004F02FFB67
:101D20003088B638132834D22088A1784018208013
:101D300080B27449884201DB734820800020009003
:101D4000AB23A6229B217E2004F077FB0A272800E4
:101D50000090032301932088390006F081FA0200E5
:101D600003239B217E2004F00AFB2B0064A29B210D
:101D7000962004F086FB2800009001230193208820
:101D8000390006F06DFA0A0001239B219E2004F021
:101D9000F6FA3088D438132840D2A078012809D028
:101DA0000A2818D0642829D038E000BF8CF2000837
:101DB00094F200080A20A07000200090AB23E222D9
:101DC0009B21D82004F039FB2B0050A29B21D92065
:101DD00004F057FB22E06420A07000200090AB23A9
:101DE000E2229B21D82004F028FB2B0048A29B2153
:101DF000D92004F046FB11E0780300200120A070F8
:101E000000200090AB23E2229B21D82004F015FB98
:101E10002B0040A29B21D92004F033FB70883E495F
:101E20004018132866D230882D38322849D2002035
:101E30003A49087002203A49087091277F00A0248F
:101E40006400D2208000009023005022390000203E
:101E500004F0F3FA334B344AFF212831112004F007
:101E600010FBD220800000902300A02239005020D7
:101E700004F0E3FA2B4B2D4AFF212831692004F0AE
:101E800000FBD220800000902300F0223900A02027
:101E900004F0D3FA234B264AFF212831B42004F062
:101EA000F0FA28000090230050223900104604F078
:101EB00023F9280000902300A0223900104604F0E6
:101EC0001BF930889238312814D20920144908703F
:101ED0001848009096235B00C3228C214900912072
:101EE00004F0ABFA2B0000BF13A28D21490096200D
:101EF00004F0C7FAF7BD0000EB100000EC1300007F
:101F00002E000000ED130000EA1000004D0000005C
:101F10004C00000053000000E7FEFFFF78030020A4
:101F2000FA010020FFFF00009CF20008A4F2000864
:101F3000ACF2000868ED0000535441525400000018
:101F4000F8B5974D974C207A00280BD16868401C53
:101F500068609549884205D369600120A8600A201D
:101F600092490870287800280BD001281BD002283D
:101F700000D157E1032800D136E2622800D1AAE25D
:101F8000F1BDA878012805D00120A870FEF730F92E
:101F900000202072207A012800D0E3E2FEF778FBCF
:101FA00000202072F1BDA878022805D00220A87078
:101FB000FEF7B0FF00202072207A012803D1FFF73E
:101FC000EFF800202072AB480078052800D0C9E265
:101FD000774EA94C4520305C002812D1E8780128C2
:101FE0000FD00120E87000200090F323DC22E321D1
:101FF0003C2004F022FA23006E4AE3213C2004F046
:1020000040FA45363078012812D1E87802280FD0FE
:102010000220E87000200090F323DC22E3213C2022
:1020200004F00BFA2300644AE3213C2004F029FA6F
:10203000EA480168012900D094E2002101600846C5
:1020400000903F234B222F213B2004F0F6F9642619
:10205000E34D2000009002231F000620285E31007F
:1020600006F0FEF802003B002F213B2004F087F928
:10207000002000903F23B9222F21A92004F0DDF990
:10208000200000903B4608202A5E2F21A92004F062
:1020900076F9002000906323532211463B2004F080
:1020A000CCF92000009003231F006889310006F05E
:1020B000D7F802003B0053213B2004F060F90020D8
:1020C00000906323C1225321A92004F0B6F9200017
:1020D000009004236A885321A92004F050F90020BD
:1020E0000090872345227721252004F0A6F90C20B3
:1020F0002A5E002A07D4200000903B467721252045
:1021000004F03DF911E02300B6A27721252004F068
:10211000B8F9200000903B4680204000A989C9B250
:10212000421A77212D2004F02AF9002000908723FD
:1021300091227721712004F080F90E202A5E002A76
:1021400007D4200000903B467721712004F017F956
:1021500011E02300A3A27721712004F092F920005E
:1021600000903B4680204000E989C9B2421A77219D
:10217000792004F004F9002000908723DD227721E4
:10218000BD2004F05AF910202A5E002A16D420003F
:1021900000903B467721BD2004F0F1F820E000BF1D
:1021A000780300206816002060E316009C030020DE
:1021B000E4130020B4F20008C8F20008230089A24A
:1021C0007721BD2004F05DF9200000903B4680207F
:1021D0004000298AC9B2421A7721C52004F0CFF8FD
:1021E00000200090AB235B229B213B2004F025F9CB
:1021F000200000900423DC4802689B213B2004F06F
:10220000BEF800200090AB23C9229B21A92004F036
:1022100014F900940423D54802689B21A92004F0F6
:10222000AEF8F1BDA878032805D00320A870FFF709
:102230007DF800202072207A012803D1FFF79CF955
:10224000002020720B480078062800D08AE1C84898
:102250000168012900D085E1002101600846009055
:102260001B235A220B213A2004F0E7F8C14D024CFF
:1022700004E000BFFA010020DBD6000023002A00A2
:102280000B213A2004F0FDF8002000901B23D822F7
:102290000B21B82004F0D1F823002A000A320B21C8
:1022A000B82004F0EEF8002000903F2372222F2186
:1022B0003A2004F0C2F823002A0014322F213A20D9
:1022C00004F0DFF8002000903F23C8222F21A8202F
:1022D00004F0B3F823002A001E322F21A82004F0B6
:1022E000D0F8002000906323722253213A2004F09A
:1022F000A4F823002A00283253213A2004F0C1F820
:10230000002000906323C8225321A82004F095F8F0
:1023100023002A0032325321A82004F0B2F8002012
:1023200000908723722277213A2004F086F8230058
:102330002A003C3277213A2004F0A3F800200090D4
:102340008723C8227721A82004F077F823002A00E9
:1023500046327721A82004F094F800200090AB23A7
:1023600072229B213A2004F068F823002A005032A0
:102370009B213A2004F085F800200090AB23C8226E
:102380009B21A82004F059F823005A352A009B21EC
:10239000A82004F076F800200090CF237222BF21FD
:1023A0003A2004F04AF82000009004236E480268A6
:1023B000BF213A2003F0E3FF00200090CF23C82282
:1023C000BF21A82004F039F800940423674802686C
:1023D000BF21A82003F0D3FFF1BD00BF58020020A9
:1023E000C81500202D000000A878042805D004207E
:1023F000A870FFF73BF900202072207A012803D152
:10240000FFF724FB002020725B48016801294AD1B4
:1024100000210160594C2300594ABF210D2004F0CE
:1024200030F858A523002A00BF21322004F029F8F3
:10243000230055A2BF21822004F023F823002A00A4
:10244000BF21A02004F01DF800200090CF236222BD
:10245000BF21422003F0F1FF4C4E230032005A32DC
:10246000BF21422004F00DF800200090CF23D0229D
:10247000BF21B02003F0E1FF23005F363200BF210F
:10248000B02003F0FEFF00200090F323C822E321D8
:10249000A82003F0D2FF009404233D480268E32102
:1024A000A82003F06CFF3B48016801295AD10021A4
:1024B000016008460090F3235A22E3213A2003F0FA
:1024C000BCFF2E480090042333480268E3213A20E1
:1024D00003F055FFF1BD91277F00A0267600D220A2
:1024E00080000090330050223900002003F0A5FF47
:1024F0002A4C23002A4AFF212831112003F0C1FF72
:10250000D220800000903300A0223900502003F038
:1025100094FF2300234AFF212831692003F0B1FFF3
:10252000D220800000903300F0223900A02003F078
:1025300084FF23001C4AFF212831B42003F0A1FFAF
:102540000E4C20000090330050223900104603F05A
:10255000D3FD00943300A0223900104603F0CCFDD7
:1025600000202870F1BD000050020020540200201D
:1025700058030020801300204C030020DBD600000D
:1025800054F200083A000000534E5200E4130020B9
:10259000440300205003002048030020FFFF0000F8
:1025A0009CF20008A4F20008ACF2000880B500F02C
:1025B000B7F901BD80B587489E4901609621890120
:1025C000416000218160C16001610C224261816132
:1025D000C1610162416205F09DFE002801D006F054
:1025E0001AFC01BD80B58948A1490160E121490279
:1025F000416000218160C16001610C224261816102
:10260000C1610162416205F085FE002801D006F03B
:1026100002FC01BD70B586B004002068864988427E
:1026200015D1864841688022D2020A434260C02008
:1026300000010090022001900120029003200390ED
:102640000420049069468B4806F0E6FB71E0794966
:10265000884234D1794801688022D2010A4302605D
:10266000C020C000009002200190012002900325AC
:102670000395042004906946A020C00506F0CCFB19
:10268000864E9E48306075600020B060F06080210A
:1026900031617061B061F0613062300006F0B2FC0F
:1026A000002801D006F0B7FB6666B462002211462E
:1026B0001B2006F00AFF1B2006F00BFF39E06C49D7
:1026C000884236D15D484168802292020A434260C6
:1026D0000C20009002200190012002900320039022
:1026E000042504956946A020C00506F095FB6B4EB5
:1026F00082482830F063356400207064B064802123
:10270000F16430657065B065F06530003C3006F00E
:1027100079FC002801D006F07EFB30003C3060667A
:102720007466002202211C2006F0CFFE1C2006F059
:10273000D0FE06B070BD70B505000C00002603E0A9
:10274000A85D00F004F8761CA642F9D370BD8E494E
:102750000A681206FCD5C860704706E08A490A6814
:102760001206FBD50278CA60401C01780029F5D119
:10277000704738B5254D102428680462022006F001
:10278000F6FE40202968086202018049280005F011
:10279000F5FD28680168214301602868046231BDA5
:1027A00010B51A4C20681021C2690A4011D001628C
:1027B000200005F017FE606E0068406874498022B2
:1027C000D200101A488001200870091D200005F071
:1027D000D5FD10BDA012002010B56E4C2068102150
:1027E000C2690A4011D00162200005F0FBFD606E55
:1027F0000068406868498022D200101A4880012091
:102800000870091D200005F0B9FD10BD101300204F
:1028100070B505000C00002603E0A85D00F004F888
:10282000761CA642F9D370BD5C490A681206FCD535
:10283000C860704700380140004800403410024032
:1028400038B5544D102428680462022006F08FFE2B
:1028500040202968086202015149280005F08EFDD8
:1028600028680168214301602868046231BD0000C6
:10287000004400400004005070B505000C00002624
:1028800003E0A85D00F004F8761CA642F9D370BD01
:1028900044490A681206FCD5C8607047B811002088
:1028A00006E040490A681206FBD50278CA60401C5F
:1028B00001780029F5D1704710B43B4A1268102303
:1028C000D4691C400DD01362002204E0845C9B1884
:1028D0001C71521C92B2354B8A42F7DB59800120A1
:1028E000187010BC704730484021026811622021E6
:1028F00002681162102100680162704730000240D6
:102900002B48082101624904016281688022D203B8
:102910000A438260016802220A4302607047000095
:1029200038B5214D224C2C60962080016860002033
:10293000A860E8602861A8610C206861280005F0A3
:10294000E9FC286801680122914301600820A06128
:10295000206820210143216020681021014321606B
:10296000022200211D2006F0B0FD1D2006F0B1FD61
:102970002868016801220A430260A068C021890317
:102980000143A16031BD00001C440040AC030020A5
:10299000A8030020A0120020AC0700201C38014032
:1029A000B00700201C48004030120020B00B00206F
:1029B000004800400EB400B5A0B021AB0200802159
:1029C000684606F0E7FD6846FFF7C7FE209824B08A
:1029D0000047FEE7F8B50400002580267600B34FD7
:1029E0000EE0002206F0ECFA64000022310038000C
:1029F00006F0E6FA01223100380006F0E1FA6D1C1B
:102A0000082D08DAA020C005F1012206E9D501222F
:102A100006F0D6FAE8E7F1BDF1B500242500A34F92
:102A20008026760022463100380006F0C9FA224698
:102A30000121A020C00506F0C3FA68460078FFF720
:102A4000C9FF062000F0D6F801223100380006F058
:102A5000B7FA22463100380006F0B2FA13E06400FB
:102A600000223100380006F0ABFA012231003800B4
:102A700006F0A6FAF100A020C00506F09AFA012897
:102A800000D1641C6D1C102DE9DB01221146A02031
:102A9000C00506F095FA200080B20009F2BDF0B53D
:102AA00089B005000024260006E02800FFF7B4FFE7
:102AB000694672008852761C0F2EF6DB20000FE06C
:102AC0006D464300EB181F884E00AD192E88BE429C
:102AD00001D21E802F80491C89B20F29F0DB100023
:102AE0000E2804DA0200521C92B21100F5E7200011
:102AF00005210A0005E06B4654001B5BC01880B23C
:102B0000521C0A2AF7DB05F0ABFB80B209B0F0BD1E
:102B100070B505000C00D020FFF7C1FF0600902023
:102B2000FFF7BDFF642E01DB642801DA002070BDD1
:102B30002E802080012070BD30B583B004000D00D0
:102B400001A901A8801CFFF7E3FF002850D06946C7
:102B500000A8801CFFF7DCFF002849D06846C08829
:102B600069464988884206D36846C08869464988CC
:102B7000323188420CDB684640886946C988884201
:102B800036D3684640886946C988323188422FDA90
:102B90006846808869460988884206D368468088E6
:102BA00069460988323188420CDB684600886946EC
:102BB000898888421CD368460088694689883231F2
:102BC000884215DA6846C08869464988401801007D
:102BD000C90F081840102080684680886946098817
:102BE00040180100C90F08184010288001203EBD80
:102BF00000203EBD0621002205E00B00591EDBB27D
:102C0000002BFAD1521C1300DBB28342F5D370477C
:102C1000F8B50C0015000600254F28000090230091
:102C200032000D3292B2F01980B203F065FA28003A
:102C3000009023000D339BB23200E11989B23000BD
:102C400003F05AFA3000401C694648802B000122EC
:102C50002100491C89B26846408803F02FFA0B37DF
:102C6000F019694608802B0001222100491C89B215
:102C70006846008803F022FAE7192B000122390088
:102C800089B26846408803F019FA2B000122390006
:102C900089B26846008803F011FA2B000622210051
:102CA000300003F0ABFAF1BD00000000000400505A
:102CB000F4FF0000F0B585B00025D34803F09DFB7C
:102CC0001F2300BFDAA26E21232003F0DAFB1F23AB
:102CD000CE4A8C21142003F0D4FBF82212021421D6
:102CE0000846FFF795FFCA4F28463872F86001ACD6
:102CF0000FE00025C44803F080FBF82212021421E3
:102D00000846FFF785FF1F23CFA26E21142003F092
:102D1000B8FBC0480078002801D0002071E1387A63
:102D20000128F6D100203872A800B9882152F9880C
:102D3000201841806D1CEDB2012D06D0E9D3032D82
:102D400022D011D3042D31D0E3E7AF4800902823DF
:102D50001A460021084603F070FBF82212021421E3
:102D6000DC20FFF755FFD4E7A74800902823F02286
:102D70000021C82003F061FBF822120296214900CD
:102D80001420FFF745FFC4E79F480090A0235B0095
:102D900028228C214900002003F04FFBF822120268
:102DA00096214900DC20FFF733FFB2E72088A18895
:102DB000401A06F00DFC05006088E188401A06F014
:102DC00007FC2900694302004243881806F00EFC04
:102DD00006F01CFC06F07AFC0500ADB22089A18942
:102DE000401A06F0F5FB06006089E189401A06F0FA
:102DF000EFFB3100714302004243881806F0F6FBF6
:102E000006F004FC06F062FC0600B6B2280006F0EC
:102E100093FC0090300006F08FFC0100009806F053
:102E20009AFC7D4906F0ECFC00D262E77B4906F093
:102E3000FBFC00D85DE7002D00D15AE7002E00D141
:102E400057E720882189401A06F0C2FB05006088F8
:102E50006189401A06F0BCFB290069430200424325
:102E6000881806F0C3FB06F0D1FB06F02FFC050026
:102E7000ADB2A088A189401A06F0AAFB0600E0883E
:102E8000E189401A06F0A4FB31007143020042437D
:102E9000881806F0ABFB06F0B9FB06F017FC06003D
:102EA000B6B2280006F048FC0500300006F044FCED
:102EB0000100280006F04FFC574906F0A1FC00D2A3
:102EC00017E7564906F0B0FC00D812E7A088218920
:102ED000401A06F07DFB0500E0886189401A06F083
:102EE00077FB2900694302004243881806F07EFB05
:102EF00006F08CFB06F0EAFB0500ADB22088A18944
:102F0000401A06F065FB06006088E189401A06F069
:102F10005FFB3100714302004243881806F066FBF4
:102F200006F074FB06F0D2FB0600B6B2280006F0ED
:102F300003FC0500300006F0FFFB0100280006F04E
:102F40000AFC354906F05CFC03D3344906F06CFCFE
:102F500008D800251F2300BF3BA26E21142003F0D8
:102F600090FAD6E6A0882188401A06F0D9FB010025
:102F70002B4806F0F0FB0600FE60FC25AD05A0889E
:102F80002188401806F0CCFB310006F061FC0100FE
:102F9000244806F0EDFC290006F05AFC06F040FD3E
:102FA000B88260896188401A06F0BAFB01001E48A9
:102FB00006F0D1FB06003E6160896188401806F08A
:102FC000AFFB310006F044FC0100184806F0D0FCCD
:102FD000290006F03DFC06F023FDF8820A48009027
:102FE000A023F0226E21002003F027FA1F2300BF48
:102FF0001CA26E21232003F044FA962002F04CF824
:10300000012005B0F0BD0000FFFF000028F6000819
:1030100068160020FA0100203433733F6766863F4C
:10302000000048430000704300008C430000A043B0
:10303000506C6561736520746F7563682074686592
:1030400020646F74732C0000546F756368205363A1
:103050007265656E2041646A7573742041676169A9
:103060006E000000546F7563682053637265656E6F
:103070002041646A757374204F4B2100BFF34F8F5A
:10308000034804490860BFF34F8F00BFFDE700000D
:103090000400FA050CED00E0F0B585B000263046DE
:1030A00069460880CC488078092801D900F03CFFA7
:1030B00001A14000095A8F441200E80168025A0336
:1030C0001606EE07EA09620B6E0EA60CC34D687871
:1030D000012800D192E0C248FFF76CFCC148FFF71D
:1030E00069FCC148FFF766FCC048FFF763FCC048B5
:1030F000FFF760FCBF48FFF75DFCBF48FFF75AFCD5
:10310000BE48FFF757FCBE48FFF754FCBD48FFF729
:1031100051FC01206870BC4C2078AF494870A07801
:103120004871012802D1B948FFF744FC6068AA49F8
:103130004865002811D1B64848656021042001F097
:103140007CFFEA21052001F078FF3146062001F0DE
:1031500074FF3146072001F070FF286A002811D162
:10316000AB4828626021082001F067FFEA210920AE
:1031700001F063FF31460A2001F05FFF31460B206A
:1031800001F05BFF207B94490871314606E0C54A97
:103190008A5C914B5B181A73491CC9B28142F6DBF9
:1031A000C1480078012829D1FCF78AFFBF48007880
:1031B000632801D102F086F9304604F0A7FC6420B0
:1031C00006F0D5F9BA4C206803F0C0FE206803F081
:1031D000F1FE206803F02AFF206803F095FF2068C5
:1031E00003F0C8FF206803F0F9FF206804F068F8D6
:1031F000206803F0D1FC206803F04CFF01F012FBC3
:1032000075484078012801D000F08EFEA94D324665
:103210000821280005F0D4FE0C21A748FFF7F8FA92
:10322000A648FFF7C7FBA64C0CE0012006F09FF96B
:10323000761CB6B2FA204000864203DB0026D7A0F7
:10324000FFF7B8FB2078002804D19E4801F0B2FCBB
:103250000128EAD10020604908702078012809D1AE
:10326000022048709848FFF7A5FB0121002001F0DB
:10327000E4FE06E0002804D1002048709348FFF7E0
:1032800099FB01220821280005F09AFE0C219048A4
:10329000FFF7BEFA642006F06AF90020207000F003
:1032A00043FE4E4D6878632804D0D948FFF782FB6F
:1032B0006320687006F0D2FBD648FFF77BFBD64C44
:1032C00032460121200005F07BFE3246022120001B
:1032D00005F076FE32460421200005F071FE3246EC
:1032E0000821200005F06CFEFA20800006F03FF96E
:1032F00001221146200005F063FE01220221200078
:1033000005F05EFE01220421200005F059FE012295
:103310000821200005F054FE30462F49887000F047
:1033200003FE2E4D687802283BD0BB4C324601216B
:10333000200005F045FE01220221200005F040FE9C
:1033400001220421200005F03BFE0122082120007B
:1033500005F036FE6878072806D153480078012822
:1033600002D172B6FFF78AFE304603F0E8FBD5487B
:10337000FFF720FB02206870012003F0CFFB322012
:1033800006F0F5F8304604F0C1FB642006F0EFF8D3
:1033900046480178632901D16221017030462861D5
:1033A0006861C94C2078012806D1304620706188B8
:1033B000241D2000FFF7BFF9C44D2878012801D053
:1033C00000F0B2FD3046287069882D1D2800FFF7F7
:1033D00053FA00F0A9FD00BFF801002034030020DB
:1033E00034E9000880E90008A8E90008B8E9000805
:1033F000C8E90008E4E9000800EA000848EA000813
:1034000098EA0008E4EA00080000080830EB000829
:1034100060EA0000CA4FCB4D687803285DD07E4C2F
:1034200001221146200005F0CBFD3246022120008A
:1034300005F0C6FD01220421200005F0C1FD012296
:103440000821200005F0BCFD304603F078FBBE48A3
:10345000FFF7B0FA03206870012003F05FFB6420DF
:1034600006F085F8304604F033FA114C206803F07A
:103470006DFD206803F09EFD0A2006F078F802201A
:1034800003F04CFB7879012824D1B048FFF792FA79
:10349000AF48FFF78FFA787801281ED1AD48FFF7C3
:1034A00089FA1AE00D000808AA1600207803002007
:1034B00094030020000400508403002050EB000817
:1034C000AC0700208813000064EB000884EB0008C0
:1034D00028030020A048FFF76DFA7878002822D151
:1034E0002EA0FFF767FA9D48006804F083FC4A4C61
:1034F00000220221200005F063FD962676003000B0
:1035000006F035F801220221200005F059FD3000B7
:1035100006F02DF800220221200005F051FD904810
:1035200080780328D9D0694D2878012801D000F08F
:10353000FBFC002028707878012800D08BE1364C05
:1035400000220821200005F03BFDBA7969882D1D75
:10355000280004F0C7FB05006DB2012D02D1C04860
:10356000FFF728FA0020C043854202D1BD48FFF78B
:1035700021FA0120C043854202D1BB48FFF71AFA65
:103580000220C043854202D1B848FFF713FA032056
:10359000C043854206D1B64802E000BFA1A40000A6
:1035A000FFF708FA01220821200005F009FD012D8E
:1035B00053D0012003F0B2FA642005F0D8FFAD48E3
:1035C000006803F0D1FE642005F0D1FF022003F073
:1035D000A5FAA948FFF7EEF9A84C2078052824D8C9
:1035E00001A1095C8F4400BF060E161E343CA4489E
:1035F000FFF7E0F919E0A348FFF7DCF915E0A2486E
:10360000FFF7D8F911E0A148FFF7D4F90DE000BFAA
:10361000B4EB0008D0EB0008000800509C48FFF70E
:10362000C9F902E09B48FFF7C5F961789A48FFF7AE
:10363000C1F9A1789948FFF7BDF9E1789848FFF7FB
:10364000B9F961689748FFF7B5F92189D748FFF7BD
:10365000B1F96189D648FFF7ADF91B4C20780128F4
:1036600001D000F061FC00202070D248FFF7A2F9E1
:10367000D14D2800FFF79EF961882000001DFFF75B
:103680005AF8CE48FFF796F9CD48FFF793F928008E
:10369000FFF790F900250CE0661930790A2802DA64
:1036A000C8A0FFF787F93179D9A0FFF783F96D1C1E
:1036B000EDB260888542EFDBC048FFF77BF900F090
:1036C00033FC00BFE8EB0008B00B0020A80300208B
:1036D0001C4D6878042850D0CE4C012211462000A1
:1036E00005F06EFC32460221200005F069FC012243
:1036F0000421200005F064FC01220821200005F0CF
:103700005FFC304603F01BFAC348FFF753F904206F
:103710006870012003F002FA642005F028FF012000
:1037200004F0D6F8642005F022FF0C48006803F08E
:103730000DFC0A2005F01BFF022003F0EFF91CE04E
:10374000281400203403002000EC000818EC0008C6
:1037500034EC000848EC00085CEC000894030020FE
:10376000F8010020CC4C2078012806D100202070E0
:103770006188241D2000FEF7DEFFC84F78780028FE
:103780001FD1C748006804F035FBA24C002202217B
:10379000200005F015FC96267600300005F0E7FEC7
:1037A00001220221200005F00BFC300005F0DFFEB5
:1037B00000220221200005F003FCD3488078042871
:1037C000D0D0B54C2078012806D100202070618827
:1037D000241D2000FEF7AFFFCC4D2878012800D033
:1037E000A2E3002028707878012834D1894C002287
:1037F0000821200005F0E4FBBA7969882D1D280016
:1038000004F070FA05006DB2012D02D11448FFF7E3
:10381000D1F80020C043854202D11248FFF7CAF810
:103820000120C043854202D10F48FFF7C3F80220B0
:10383000C043854202D10D48FFF7BCF80320C043C6
:10384000854202D10A48FFF7B5F80122082120007D
:1038500005F0B6FB68E3BF48FFF7ACF864E300BFD0
:1038600074EC000888EC0008A0EC0008C0EC00082C
:10387000D4EC000898030020ECEC0008801600202F
:1038800000ED000824ED000848ED00086CED00088C
:1038900090ED0008B0ED0008D0ED0008ECED000858
:1038A00008EE000824EE0008AB4D687805284FD0DC
:1038B000584C01221146200005F082FB0122022112
:1038C000200005F07DFB32460421200005F078FB46
:1038D00001220821200005F073FB0120C94908706E
:1038E000304603F02CF9C848FFF764F88648407862
:1038F00000280AD18448406DFA21890004F0B3FC05
:103900000100C248FFF756F80AE0022808D1286AE9
:10391000FA21890004F0A7FC0100BC48FFF74AF82F
:1039200005206870012003F0F9F8642005F01FFEFF
:10393000304603F0CDFF5A4C206803F007FB2068A7
:1039400003F038FB0A2005F012FE022003F0E6F82F
:10395000524F787800281FD15148006804F04AFA85
:103960002C4C00220421200005F02AFB962676002C
:10397000300005F0FCFD01220421200005F020FBB1
:10398000300005F0F4FD00220421200005F018FBB2
:103990005D4880780528DBD05B484078002813D14B
:1039A00001215948406D00F037FC13E040EE00085B
:1039B00060EE000880EE0008A0EE0008A8EE000807
:1039C000B0EE000830000000022803D1296A9048B8
:1039D00000F036FD304C2078012800D0A4E2002011
:1039E00020708C48FEF7E6FF8B4D2800FEF7E2FFC3
:1039F00061882000001DFEF79EFED448FEF7DAFF26
:103A0000D348FEF7D7FF2800FEF7D4FF002512E0C9
:103A10002578000000080050E4EE000866193079AF
:103A20000A2802DACBA0FEF7C5FF3179CAA0FEF75B
:103A3000C1FF6D1CEDB260888542EFDBC348FEF725
:103A4000B9FF6088012800D06EE2207901280FD1EB
:103A500000220121C14805F0B3FA01242000D84911
:103A60000870D8480470BA79202104F03BF95BE271
:103A7000002800D058E201221146B84805F0A0FA0B
:103A80000020CF490870CF4800210170BA79202169
:103A900004F028F948E200BFB00B002028140020F1
:103AA000940300202C4D6878062862D0AB4C01228C
:103AB0001146200005F084FA01220221200005F0C1
:103AC0007FFA32460421200005F07AFA012208210B
:103AD000200005F075FA02204A490870304603F0CC
:103AE0002EF8B948FEF766FF0748407800280FD146
:103AF0000548406DFA21890004F0B5FB01004348F8
:103B0000FEF758FF0FE000BFF8010020A8030020D7
:103B1000022808D1286AFA21890004F0A4FB0100D8
:103B20003A48FEF747FF06206870012002F0F6FFD2
:103B3000642005F01CFD012003F0CAFEA3480068C4
:103B400003F004FA0A2005F012FD022002F0E6FF5D
:103B50000FE000BFD0EE0008340300209C4C20781A
:103B6000012806D1002020706188241D2000FEF766
:103B7000E2FD9848407800281FD19448006804F07E
:103B800039F9764C00220421200005F019FA962616
:103B90007600300005F0EBFC01220421200005F046
:103BA0000FFA300005F0E3FC00220421200005F0AC
:103BB00007FA894880780628D0D0854C20780128DB
:103BC0000DD1002020702100091DE86801F0FEF8E9
:103BD0006188241D2000FEF7AEFD012068627E484A
:103BE0004078002805D100217B48406D00F014FB8F
:103BF0009AE1022800D097E1296A054800F020FCEC
:103C000092E100BF7803002008EF000824EF0008CD
:103C10008038010080EE0008A0EE00083046C3495D
:103C20000870112005F059FC01221102A020C005E6
:103C300005F0C6F9BE4D6878072831D0474C0122FF
:103C40001146200005F0BCF901220221200005F0F8
:103C5000B7F901220421200005F0B2F90122082160
:103C6000200005F0ADF9304602F069FFB148FEF7DB
:103C7000A1FE072068703046A870012002F04EFFB8
:103C8000642005F074FC304603F022FE4F480068C3
:103C900003F05CF90A2005F06AFC022002F03EFF06
:103CA0004C4F787800282DD14848006804F0A2F8DD
:103CB0002A4C00220821200005F082F99626760081
:103CC000300005F054FC01220821200005F078F9AD
:103CD000300005F04CFC68460088401C69460880AE
:103CE00068460088FA218900884207DB002069467F
:103CF00008809148FEF75EFE06F0F2F836488078BC
:103D00000728CDD07878012800D00DE1A8780028C8
:103D10000BD131488078072804D1884800F04AFF49
:103D20000128F6D100202C4908702B4880780728FC
:103D300000D0F9E00120A8702748406DFA218900E1
:103D400004F091FA80B200F005F9EDE0A8EE000869
:103D5000B0EE000830000000257800000008005098
:103D60001C4F734D6878082868D0CA4C0122114650
:103D7000200005F025F901220221200005F020F99C
:103D800032460421200005F01BF9324608212000AC
:103D900005F016F96A48FEF70DFE0820687001204C
:103DA00002F0BCFE642005F0E2FB3878002801D068
:103DB000012813D1398A6348484303F0C3FD23E047
:103DC000C81500203016002044EF0008940300209E
:103DD000B00B002028140020F8010020022813D185
:103DE00059480490304603900290012001903046DB
:103DF00000900C20B97B431ADBB2FA7C01213C8A8B
:103E00005048604303F0CAFD642005F0B0FB012078
:103E100003F07CFE642005F0AAFB022002F07EFE87
:103E2000787D052801DA0420787505F09DFBA862ED
:103E3000797DFA22920051430818E862787B0128C4
:103E400038D105F091FBA862E96A81420FD2787DF2
:103E5000FA22920050430818E8626869401C6861C1
:103E60000120E861082128003030FEF705FD374CBD
:103E7000207801281ED1304620706088082819D18A
:103E80002869401C28610120A86102F047FE0A2031
:103E900005F06DFB304603F039FE2D48006803F055
:103EA000C9F9012003F032FE022002F037FE0A2099
:103EB00005F05DFB787B002836D1244C2078012862
:103EC00032D13046207060882870304605E02118D5
:103ED00009792A181171401CC0B229788842F6DB92
:103EE0002869401C28610124AC61204602F016FEBE
:103EF0000A2005F03CFB304603F008FE1448006839
:103F000003F098F9204603F001FE022002F006FEBD
:103F10000A2005F02CFB29782800001DFEF7ACFCD8
:103F20006869401C6861EC6105B0F0BD9C0300202D
:103F30003403002068EF00088CEF0008B80B000085
:103F4000ACEF0008A0860100280A0000B00B00209A
:103F500094030020F1B50024934F7879002804D110
:103F6000386D00F03DFD00F0AFFE9048FEF722FDF9
:103F7000B86D401CB8657879002807D18C48027864
:103F800020218C4803F048FE040009E0012807D1F5
:103F900087480278397938000C3003F03DFE040080
:103FA000012C15D18448FEF705FDF86D401CF8651D
:103FB000384C00220821200005F002F8FA204000C9
:103FC00005F0D5FA01220821200004F0F9FFDBE01A
:103FD000022C61D1F86D401CF865784C20780128DE
:103FE00000D0D1E0002020707548FEF7E3FC754D4D
:103FF0002800FEF7DFFC61882000001DFEF79BFB18
:104000007148FEF7D7FC7148FEF7D4FC2800FEF794
:10401000D1FC00250CE0661930790A2802DA6CA080
:10402000FEF7C8FC31796BA0FEF7C4FC6D1CEDB245
:1040300060888542EFDB6448FEF7BCFC608801289D
:1040400000D0A1E02079012810D1002201211148DF
:1040500004F0B6FF012108005F4A10705548017056
:1040600053490A78202103F03DFE8DE0002800D05E
:104070008AE001221146074804F0A2FF00205649B9
:1040800008704C480021017049490A78202103F04A
:1040900029FE79E0000800500020C043844202D18C
:1040A0004E48FEF787FC0120C043844202D14C48B1
:1040B000FEF780FC0220C043844202D14948FEF74B
:1040C00079FC0320C043844202D14748FEF772FCCA
:1040D000464C00220221200004F072FFFA2040002A
:1040E00005F045FA01220221200004F069FF0120B9
:1040F00002F014FD642005F03AFA3D48006803F030
:1041000033F9642005F033FA022002F007FD394844
:10411000FEF750FC384C207805281DD801A1095C19
:104120008F4400BF060E161E262E3448FEF742FCB2
:1041300012E03348FEF73EFC0EE03248FEF73AFC50
:104140000AE03148FEF736FC06E03048FEF732FC64
:1041500002E02F48FEF72EFC61782E48FEF72AFC7D
:10416000A1789D48FEF726FCE1789C48FEF722FCEA
:1041700061689B48FEF71EFC21899A48FEF71AFCED
:1041800061899948FEF716FCFA6DB96D9748FEF7FC
:1041900011FCB878072805D16846008805F005FEAF
:1041A00005F09EFEF1BD0000F8010020C4EF0008FC
:1041B0002E1400203016002074EC0008B00B0020F4
:1041C00080EE0008A0EE0008A8EE0008B0EE00089F
:1041D0003000000025780000C815002088EC000899
:1041E000A0EC0008C0EC0008D4EC00080008005067
:1041F00098030020ECEC00088016002000ED000879
:1042000024ED000848ED00086CED000890ED000872
:10421000B0ED0008D0ED0008F2B50700002635002B
:10422000734CE07900280ED10120E07105F09CF973
:10423000606680214905884202D36E480660666642
:10424000606EC019606605F08FF9A066616E8142EC
:1042500000D3BFE0E671A079002800D0BBE00126C2
:104260003000A0716079002805D1206D00F0B8FB06
:1042700000F02AFD2666604E3078012800D0AAE0C2
:104280005E4F2A460821380004F09AFEA06D401CBB
:10429000A0656079002807D172792021584803F081
:1042A00021FD05006DB209E0012807D1727921795D
:1042B00020000C3003F016FD05006DB2012D05D174
:1042C000E06D401CE0654F48FEF774FB0020C043E2
:1042D000854202D14C48FEF76DFB0120C043854268
:1042E00002D14A48FEF766FB0220C043854202D154
:1042F0004748FEF75FFB0320C043854202D1454893
:10430000FEF758FBE26DA16D3848FEF753FB012222
:104310000821380004F054FE6846007801285AD17C
:10432000012D58D000220221380004F049FE01205E
:1043300002F0F4FB642005F01AF93748006803F036
:1043400013F8642005F013F9022002F0E7FB33486C
:10435000FEF730FB324C207805281DD801A1095CFE
:104360008F4400BF060E161E262E2E48FEF722FB97
:1043700012E02D48FEF71EFB0EE02C48FEF71AFB5C
:104380000AE02B48FEF716FB06E02A48FEF712FB70
:1043900002E02948FEF70EFB61782848FEF70AFB89
:1043A000A1780D48FEF706FBE1780C48FEF702FB0A
:1043B00061680B48FEF7FEFA21890A48FEF7FAFA0F
:1043C00061890948FEF7F6FA01220221380004F05B
:1043D000F7FDF1BDA671F1BDECED000808EE000897
:1043E00024EE000840EE000860EE0008D8EF000858
:1043F000F8010020A0160020291400200008005019
:104400003016002074EC000888EC0008A0EC0008CE
:10441000C0EC0008D4EC000898030020ECEC000885
:104420008016002000ED000824ED000848ED00088B
:104430006CED000890ED0008B0ED0008D0ED00082C
:10444000F8B505001A4C607A012800D10D00A07A59
:1044500000280FD10120A07205F086F8E0668021C7
:104460004905884203D30027CF480760E766E06E1E
:104470004019E06605F078F820670027E16E814278
:1044800018D23800A072207AE178014314D10125B6
:10449000280020723A460146C44804F091FD206D80
:1044A00000F09EFAE5700C21C148FEF7B1F903E077
:1044B000F801002038002072E078012800D071E176
:1044C000E06C00F037FB0090012802D0032800D0F8
:1044D000B0E03800E070607201221146B34804F089
:1044E0006FFD00F0F1FBB34EB34DAA69317CB348C8
:1044F000FEF760FA6A69317EB148FEF75BFA042084
:10450000285E0A2103F0ACFE0100AE48FEF752FA25
:104510003A460221A54804F053FD022002F0FEFABB
:104520000A2005F024F8A06D401CA065A64802787A
:104530002021A64803F0D6FB05006DB2012D05D160
:10454000E06D401CE065A248FEF734FA0020C0434D
:10455000854202D19F48FEF72DFA0120C0438542D3
:1045600002D19D48FEF726FA0220C043854202D1BF
:104570009A48FEF71FFA0320C043854202D19848AB
:10458000FEF718FAE26DA16D9648FEF713FA0122C4
:104590000221864804F014FD012D4BD0012002F0C9
:1045A000BDFA642004F0E3FF8F48006802F0DCFEEF
:1045B000642004F0DCFF022002F0B0FA8B48FEF722
:1045C000F9F98B4D287805281CD801A1095C8F4486
:1045D000040C141C242C8748FEF7ECF912E08648E2
:1045E000FEF7E8F90EE08548FEF7E4F90AE08448B2
:1045F000FEF7E0F906E08348FEF7DCF902E08248C6
:10460000FEF7D8F969788148FEF7D4F9A97880488F
:10461000FEF7D0F9E9787F48FEF7CCF969687E4863
:10462000FEF7C8F929897D48FEF7C4F969897C48F5
:10463000FEF7C0F90098022800D0B3E0E77001202F
:10464000607202460146594804F0BAFC00F0DAFAFA
:1046500000F03AFB574E584DAA69317C5748FEF797
:10466000A9F96A69317E5648FEF7A4F90420285E4C
:104670000A2103F0F5FD01005248FEF79BF93A4686
:1046800008214A4804F09CFC022002F047FA0A2064
:1046900004F06DFFA06D401CA0654B4802782021FE
:1046A0004A4803F01FFB05006DB2012D05D1E06DF6
:1046B000401CE0654648FEF77DF90020C043854276
:1046C00002D14448FEF776F90120C043854202D169
:1046D0004148FEF76FF90220C043854202D13F48AE
:1046E000FEF768F90320C043854202D13C48FEF73B
:1046F00061F9E26DA16D3B48FEF75CF901220821EA
:104700002A4804F05DFC012D4CD0012002F006FA8D
:10471000642004F02CFF3448006802F025FE642079
:1047200004F025FF022002F0F9F93048FEF742F9C3
:104730002F4D287805281DD801A1095C8F4400BFA2
:10474000060E161E262E2B48FEF734F912E02A48D4
:10475000FEF730F90EE02948FEF72CF90AE0284868
:10476000FEF728F906E02748FEF724F902E026487C
:10477000FEF720F969782548FEF71CF9A978244846
:10478000FEF718F9E9782348FEF714F9696822481A
:10479000FEF710F929892148FEF70CF969892048AC
:1047A000FEF708F9F1BD00BFA01600200008005078
:1047B0008403002010160020C8150020FCEF00081C
:1047C00010F0000824F000082E14002030160020FD
:1047D00074EC000888EC0008A0EC0008C0EC0008AD
:1047E000D4EC0008D8EF000898030020ECEC000897
:1047F0008016002000ED000824ED000848ED0008B8
:104800006CED000890ED0008B0ED0008D0ED000858
:10481000ECED000808EE000824EE000840EE000869
:1048200060EE0008F8B5A14C2078012800D0D6E051
:10483000608803281CD12079592808D1617945293D
:1048400005D1A179532902D10121A84A51704F28DD
:104850000ED1607946280BD1A079462808D10020D6
:10486000A2494870014600F0E8FBB048FEF7A2F804
:104870002079FF2800D0B0E060882118CA78FF2A8C
:1048800000D0AAE06279AA2A23D18978AA2920D166
:1048900008281ED1617A954DA0790006E2791204AC
:1048A0008018227A1202801840186865042000F0EF
:1048B000C4FB217A052000F0C0FBE179062000F05E
:1048C000BCFBA179072000F0B8FB696D9848FEF7A2
:1048D00071F86079DD2825D1608821188978DD2973
:1048E00020D108281ED1617A804DA0790006E27996
:1048F00012048018227A1202801840186865082075
:1049000000F09BFB217A092000F097FBE1790A2057
:1049100000F093FBA1790B2000F08FFB696D8448B8
:10492000FEF748F86079BB2835D16088211889786E
:10493000BB2930D1011F6D4D2971C9B20C2000F087
:104940007CFB00273E0009E0A0198179A8190173BA
:1049500030000D3000F071FB761CF6B228798642EB
:10496000F2DBA248FEF726F80FE0EE19307B0A28AA
:1049700002DA9FA0FEF71EF8317B9EA0FEF71AF820
:104980009DA0FEF717F87F1CFFB228798742ECDB69
:104990009AA0FEF70FF86079CC281ED16088201805
:1049A0008078CC2819D1A079002809D100204F495E
:1049B00048710146022000F040FB9148FDF7FAFFE4
:1049C000A079012809D101204849487101460220F7
:1049D00000F033FBB748FDF7EDFF00202070F1BD7C
:1049E00010B5040000F00AF8200000F049F820009B
:1049F00000F05EF8200000F07BF810BDF8B5040070
:104A000005F010FC050005F019FC0090AA4EDE2709
:104A1000BF05280004F090FE390004F019FFA749F3
:104A200004F016FFA64904F06BFF310004F010FFFC
:104A300004F0F6FF0500ADB2009880B204F07CFEF1
:104A4000390004F005FF310004F002FF04F0E8FF34
:104A50000700BFB22800E08038002081280004F061
:104A60006BFE310004F077FE05F006FC02000B003F
:104A70009448FDF79FFF3900C448FDF79BFFF1BD47
:104A800038B5040005F095FC05008B48290004F0BA
:104A9000DFFE04F0C5FF6081280005F0EDFB020099
:104AA0000B00BB48FDF786FF31BD0000A8030020C6
:104AB000F8B5060005F02BFD070005F0DDFB04004E
:104AC0000D0022002B00B348FDF774FF38000021D1
:104AD00005F082FD08D0200029000022AE4B05F031
:104AE0008BFD04F0F3FD7080F1BD0000F8010020A3
:104AF0007CB50600684605F053FE009800B2B08110
:104B000068460221445EF4810421455E35820099A5
:104B100009B2A248FDF74EFF2100A148FDF74AFF68
:104B20002900A048FDF746FF73BD000034F00008DF
:104B300048F0000870B506009B490878012837D175
:104B400000242000087048880B2831DB091D300044
:104B500005F0F7FF954D3078002819D09448F1689A
:104B600000290AD00C21FDF753FE142004F0FFFCAD
:104B7000200028703470022070BD0C21FDF748FE23
:104B8000142004F0F4FC200028703470032070BD61
:104B90002878401C2870C0B23C2809DB2C700C21FE
:104BA0008348FDF735FE8348FDF704FF012070BD03
:104BB000002070BD38B504007F4D2878002804D14E
:104BC0000120287004F0D0FC6867287801280CD1F7
:104BD00004F0CAFCA867696F401A80B2844203D20D
:104BE00000202870012032BD002032BD6CF000088A
:104BF0003000000025780000200000000D0A0000B1
:104C000088F00008F8B56D4C6D4DE869A080EF683C
:104C10006C4E3800310003F026FB704300903800E2
:104C2000310003F020FB080004F086FD05F024FBB2
:104C30000022654B05F0E0FC0022574B05F096FF83
:104C400006F056F806F086F8010000984018A061BA
:104C50006F693800310003F006FB704300903800A4
:104C6000310003F000FB080004F066FD05F004FBD2
:104C70000022554B05F0C0FC0022474B05F076FFA3
:104C800006F036F806F066F80100009840186061FA
:104C9000287C532804D10020C043A169401AA06198
:104CA000287E572804D10020C0436169401A606102
:104CB000F1BD0000A0F000080000C842000025433C
:104CC000000020C2C0F00008AF483C490A780270DA
:104CD0004A8813004370120A827004228A5E13000D
:104CE000C370DB111B0E9A181212027106228A5E23
:104CF00013004371DB111B0E9A18121282710822E5
:104D00008A5E1300C371DB111B0E9A181212027215
:104D10004A8913004372120A82720C228A5E1300BF
:104D2000C372121202730E228A5E130043731212B0
:104D3000827310228A5E1300C373121202748A7C7B
:104D400042744A69130083741B12C37413001B144A
:104D50000375121642758A69130083751B12C37599
:104D600013001B140376121642761C228A5E13006F
:104D70008376C2761E228A5E130003774277202252
:104D8000895E0A008277C17770470000DCF0000876
:104D9000ECF0000808F100080000594020F100087C
:104DA0002CF1000838F10008AC070020B7110020F2
:104DB0002803002048F10008F8010020C815002051
:104DC000101600201027000000004E40F8B5040027
:104DD0000E00A4A7A4A1300003F068F80025002865
:104DE0000FD0290003E028321370491CC9B20A29E8
:104DF00007DA4218137962182C2BF4D128002832D4
:104E000010703900300003F051F800280FD029004D
:104E100003E032321370491CC9B20A2907DA42187A
:104E2000137962182C2BF4D12800323210708F497C
:104E3000300003F03BF800280FD0290003E03C329B
:104E40001370491CC9B20A2907DA4218537A62184A
:104E50002C2BF4D128003C3210708549300003F02F
:104E600025F800280DD0290002E01370491CC9B2B2
:104E70000A2906DA4218D37B62182C2BF5D12800B8
:104E800010707C49300003F011F800280DD0290083
:104E900002E09372491CC9B20A2906DA4218137B50
:104EA00062182C2BF5D1280090727349300002F063
:104EB000FDFF002813D0290004E0631844339A70E2
:104EC000491CC9B20A290ADA421852792C2AF4D1AB
:104ED000032904DB601844302900417001706749E0
:104EE000300002F0E3FF00280DD0290002E0137526
:104EF000491CC9B20A2906DA4218537962182C2BC8
:104F0000F5D1280010755E49300002F0CFFF00286F
:104F10000DD0290002E09377491CC9B20A2906DAAC
:104F20004218937A62182C2BF5D1280090775549B6
:104F3000300002F0BBFF00280FD0290003E0503200
:104F40001370491CC9B20A2907DA4218D3796218CA
:104F50002C2BF4D12800503210704B49300002F055
:104F6000A5FF00280ED0290003E05A321370491C17
:104F7000C9B20A2906DA4218537962182C2BF4D1E7
:104F80005A321570F1BD000030160020F1B581B025
:104F90000D003E4C002630460090002D05D568429D
:104FA00005002D20019908700126002703E00098D4
:104FB000401C00907F1C0A2F1CD22800210003F007
:104FC00052F9303001998855761C2800210003F0F1
:104FD0004AF90D0020000A2103F045F90400019868
:104FE0008019401E00783028E1D100980028DED1D9
:104FF0000026DFE7F3BD020000E0521C1378002B0F
:10500000FBD10B78002B03D01370491C521CF8E71E
:105010000D2111700A21517000219170704702001A
:1050200000E0521C1378002BFBD10B78002B03D02F
:105030001370491C521CF8E7704738B505000C0086
:1050400005F09CFE124829181248814202D305F04F
:10505000A1FE31BD2200002005F0A3FE05F09AFE5E
:1050600031BD000053463A0043483A0058F1000869
:1050700064F1000874F1000880F1000888F100086C
:1050800090F100089CF10008A4F1000800CA9A3BC6
:10509000000008080008080810B5040004F064FACD
:1050A000A10009194900441804F05EFA8442FBD1BA
:1050B00010BD10B5A024E40501220221200003F058
:1050C0007FFF1420FFF7E8FF00220221200003F0F9
:1050D00077FF2820FFF7E0FF01220221200003F0E4
:1050E0006FFF1420FFF7D8FFCF2000F0F4F8002066
:1050F00000F00FF9D92000F00CF9302000F009F988
:10510000ED2000F0E8F8642000F003F9032000F03F
:1051100000F9122000F0FDF8812000F0FAF8E820F4
:1051200000F0D9F8852000F0F4F8102000F0F1F834
:10513000782000F0EEF8CB2000F0CDF8392000F018
:10514000E8F82C2000F0E5F8002000F0E2F8342028
:1051500000F0DFF8022000F0DCF8F72000F0BBF8E8
:10516000202000F0D6F8EA2000F0B5F8002000F08A
:10517000D0F8002000F0CDF8C02000F0ACF82120DD
:1051800000F0C7F8C12000F0A6F8122000F0C1F826
:10519000C52000F0A0F8322000F0BBF83C2000F061
:1051A000B8F8C72000F097F8C12000F0B2F8362018
:1051B00000F091F8082000F0ACF83A2000F08BF8ED
:1051C000552000F0A6F8B12000F085F8002000F08E
:1051D000A0F8182000F09DF8B62000F07CF80A2016
:1051E00000F097F8A22000F094F8F22000F073F895
:1051F000002000F08EF8262000F06DF8012000F06D
:1052000088F8E02000F067F80F2000F082F82020F6
:1052100000F07FF81E2000F07CF8092000F079F8FB
:10522000122000F076F80B2000F073F8502000F008
:1052300070F8BA2000F06DF8442000F06AF80920F8
:1052400000F067F8142000F064F8052000F061F821
:10525000232000F05EF8212000F05BF8002000F031
:1052600058F8E12000F037F8002000F052F819203B
:1052700000F04FF8192000F04CF8002000F049F839
:10528000122000F046F8072000F043F82D2000F02F
:1052900040F8282000F03DF83F2000F03AF80220C6
:1052A00000F037F80A2000F034F8082000F031F858
:1052B000252000F02EF82D2000F02BF80F2000F014
:1052C00028F8112000F007F80C20FFF7E5FE292050
:1052D00000F001F810BD10B582B0694608700022D8
:1052E000802189008A4803F06BFEA024E405002297
:1052F0001021200003F064FEFA23DB00012269463E
:10530000844805F0BEFD01221021200003F058FE64
:1053100013BD10B582B069460870012251027C4865
:1053200003F04EFEA024E40500221021200003F02B
:1053300047FEFA23DB0001226946764805F0A1FD0D
:1053400001221021200003F03BFE13BD10B5040024
:10535000000AFFF7DEFF2000C0B2FFF7DAFF10BD42
:10536000FBB584B0160000273C460C9D00950D98B7
:1053700001281FD16846008B6946898A431A9BB26F
:105380006846008A321A92B26846008A00F065F8D0
:105390006846878A07E02888FFF7D8FFAD1C641CA1
:1053A000B442F8D37F1C6846008B874253D26846CC
:1053B000048AF5E704284ED16846008B6946898A3D
:1053C000431A9BB26846008A321A92B26846008A33
:1053D00000F043F86846008A301A6946098B6A462D
:1053E000928A891A48430100C90802914007400F78
:1053F000019003E00098401C00907F1C02988742B7
:1054000013D200980578264605E04348FFF79EFF33
:105410006D00EDB2761C082EECDA28000006F4D4FC
:105420003E48FFF793FFF3E7641C0198844212D2D1
:1054300000980578002605E03748FFF787FF6D00E4
:10544000EDB2761C082EEFDA28000006F4D43348BB
:10545000FFF77CFFF3E707B0F0BDF8B504000D00DF
:1054600017001E002A20FFF736FF2000000AFFF772
:1054700050FF2000C0B2FFF74CFFE019401E0012A1
:10548000C0B2FFF746FFE019401EC0B2FFF741FF70
:105490002B20FFF720FF2800000AFFF73AFF280023
:1054A000C0B2FFF736FFA819401E0012C0B2FFF7C6
:1054B00030FFA819401EC0B2FFF72BFF2C20FFF7CA
:1054C0000AFFF1BD1CB5002280214900A020C005C3
:1054D00003F076FD114C200000906923F02200219A
:1054E000084600F0AAFF0420019000BF0CA0009025
:1054F000CC23F02269210020FFF732FF0094A02383
:105500005B00F022CC21002000F097FF13BD0000CB
:105510000004005048140020930A0000DBD600006D
:10552000000000000000000000000000000000007B
:1055300000000000000000000000000000F8000073
:10554000000007E000000000000000000000000074
:105550000000000000000000000003060000000042
:105560001FF000000000000000000000000000002C
:10557000000000000000000002FA000000003FF8F8
:10558000000000000000000000000000000000001B
:105590000000000000000489000000003FFC000043
:1055A00000000000000000000000000000000000FB
:1055B000000000000489000000007FFE00000000E1
:1055C00000000000000000000000000000000000DB
:1055D000000004F1000000007FFE00000000000059
:1055E00000000000000000000000000000000000BB
:1055F0000499000000007FFE000000000000000091
:10560000000000000000000000000000000004890D
:105610000007FF807FFE0000000000000000000087
:10562000000000007FF8000000000000028E00076C
:10563000FF807FFE0000000000000000000000006E
:1056400000007FF800000000000001040007FF8058
:105650007FFE0000000000000000000000000000CD
:105660007FF800000000000000F80007FF807FFCCA
:1056700000000000000000000000000000007FF8B3
:1056800000000000000000000007FF803FFC000059
:105690000000000000000000000000007FF8000093
:1056A0000000000000000007FF803FF8000000003D
:1056B000000000000000000000007FF80000000073
:1056C000000000000007FF801FF80000000000003D
:1056D00000000000000000007FF800000000000053
:1056E00000000007FF801FF0000000000000000025
:1056F0000000000000007FF8000000000000000033
:105700000007FF800FF00000000000000000000014
:10571000000000007FF8000000000000000000070B
:10572000FF8007E000000000000000000000000013
:1057300000007FF800000000000000000007FF806C
:1057400007C0000000000000000000000000000092
:105750007FF800000000000000000007FF8003C089
:10576000000001F800000000000000007C007FF84D
:10577000000007C0000000000007FF80018000005B
:105780003FFFC0000000FFFC0007FFC07FF80000E3
:105790007FFC07FF00000007FF8001800000FFFF83
:1057A000F0000007FFFC001FFFF07FF80003FFFF81
:1057B00007FF80000007FF8000000003FFFFFC00E0
:1057C000001FFFFC007FFFFC7FF80007FFFFC7FF03
:1057D00080000007FF8000000007FFFFFF00003F80
:1057E000FFFC00FFFFFF7FF8000FFFFFE7FF8000D7
:1057F0000007FF800000001FFFFFFF80007FFFFC0D
:1058000001FFFFFF7FF8001FFFFFFFFF8000000781
:10581000FF803FFC003FFFFFFFC000FFFFFC03FFD6
:10582000FFFFFFF8007FFFFFFFFF80000007FF8002
:105830003FFC007FFFFFFFE000FFFFFC07FFFFFFD3
:10584000FFF8007FFFFFFFFF80000007FF803FFCA5
:10585000007FFFFFFFF001FFFFFC0FFFFFFFFFF8DE
:1058600000FFFFFFFFFF80000007FF803FFC00FFFD
:10587000FFFFFFF801FFFFFC1FFFFFFFFFF801FF25
:10588000FFFFFFFF80000007FF803FFC01FFFC01DE
:10589000FFF803FFF0001FFFF0FFFFF801FFFF0F0D
:1058A000FFFF80000007FF803FFC01FFE0007FFC5E
:1058B00003FFE0003FFF801FFFF803FFF801FFFF39
:1058C00080000007FF803FFC03FFC0003FFC03FF98
:1058D000C0003FFE0007FFF803FFE0007FFF8000ED
:1058E0000007FF803FFC03FF80001FFE03FFC00096
:1058F0007FFC0003FFF807FFC0003FFF80000007A8
:10590000FF803FFC07FF80000FFE03FFC0007FF811
:105910000001FFF807FF80001FFF80000007FF80E5
:105920003FFC07FF000007FE03FFC0007FF80000F8
:10593000FFF807FF00001FFF80000007FF803FFC0B
:1059400007FE000007FF03FFC0007FF00000FFF824
:105950000FFF00000FFF80000007FF803FFC0FFFDC
:10596000FFFFFFFF03FFC000FFF000007FF80FFE06
:1059700000000FFF80000007FF803FFC0FFFFFFFCC
:10598000FFFF03FFC000FFE000007FF80FFE0000F4
:1059900007FF80000007FF803FFC0FFFFFFFFFFFB6
:1059A00003FFC000FFE000007FF80FFE000007FFCC
:1059B00080000007FF803FFC0FFFFFFFFFFF03FF9A
:1059C000C000FFE000007FF80FFE000007FF80002E
:1059D0000007FF803FFC0FFFFFFFFFFF83FFC000BA
:1059E000FFE000003FF80FFC000007FF8000000709
:1059F000FF803FFC0FFFFFFFFFFF83FFC000FFE0C2
:105A000000003FF80FFC000007FF80000007FF8048
:105A10003FFC0FFFFFFFFFFF83FFC000FFE0000020
:105A20003FF80FFC000007FF80000007FF803FFCED
:105A30000FFFFFFFFFFF83FFC000FFE000007FF8C4
:105A40000FFE000007FF80000007FF803FFC0FFFF4
:105A5000FFFFFFFF03FFC000FFE000007FF80FFE25
:105A6000000007FF80000007FF803FFC0FFE0000E2
:105A7000000003FFC000FFE000007FF80FFE000001
:105A800007FF80000007FF803FFC0FFE00000000C2
:105A900003FFC000FFF000007FF80FFE00000FFFC3
:105AA00080000007FF803FFC07FE000007FF03FFA8
:105AB000C0007FF00000FFF80FFF00000FFF800024
:105AC0000007FF803FFC07FF000007FF03FFC00047
:105AD0007FF80000FFF807FF00001FFF80000007AD
